:020000040800F2
:10000000D8150020951B0008410200084302000893
:10001000470200084B0200084F02000800000000E1
:100020000000000000000000000000005302000873
:10003000550200080000000057020008590200089D
:10004000AF1B0008AF1B0008AF1B0008AF1B000868
:10005000AF1B0008AF1B0008AF1B0008AF1B000858
:10006000AF1B0008AF1B00087D180008AF1B00087D
:10007000AF1B0008AF1B0008AF1B0008AF1B000838
:10008000AF1B0008AF1B0008AF1B0008AF1B000828
:10009000AF1B0008AF1B0008AF1B0008A518000825
:1000A000AF1B0008AF1B0008AF1B0008AF1B000808
:1000B000390D0008AF1B0008AF1B0008AF1B00087C
:1000C000AF1B0008AF1B0008AF1B0008AF1B0008E8
:1000D000AF1B00081F1B000821150008C90D0008F0
:1000E000AF1B0008AF1B0008AF1B0008AF1B0008C8
:1000F000AF1B0008AF1B0008AF1B0008AF1B0008B8
:10010000AF1B0008AF1B0008AF1B0008AF1B0008A7
:10011000A5160008AF1B0008AF1B0008590C00080B
:10012000AF1B0008AF1B0008AF1B0008AF1B000887
:10013000AF1B0008AF1B0008AF1B0008AF1B000877
:10014000AF1B0008AF1B0008AF1B0008AF1B000867
:10015000AF1B0008AF1B0008AF1B0008AF1B000857
:10016000AF1B0008AF1B0008AF1B0008AF1B000847
:10017000AF1B0008AF1B0008AF1B0008AF1B000837
:10018000AF1B0008AF1B0008DFF80CD004F006F925
:10019000004800479D010008D815002000244FF4B6
:1001A000A06001F009FDA82001F0D4FB00F05EF989
:1001B00000F07CF900F0CEFE00F004FA4FF4165087
:1001C00001F0A1FA4FF4E13000F02EFE01F081FBC6
:1001D00003F0E1FC2EE000F0C2F91748008800F0BF
:1001E00002FD42F2107094FBF0F100FB114068B97F
:1001F00007E0681CC5B2642001F00EFC052D00D19B
:1002000003E001F006FB0028F3D100BFC82001F095
:1002100003FC204604EBD0714910A4EB410139B92D
:100220000648006808B9012000E000200349086082
:10023000601C84B2CFE7000002000020A802404208
:10024000704700BFFEE700BFFEE700BFFEE700BF4C
:10025000FEE7704770477047704700000CB50020FC
:10026000019000907648006840F48030744908603E
:1002700000BF7348006800F4003000900198401CF3
:100280000190009818B90198B0F5A04FF1D16C48D1
:10029000006800F4003010B10120009001E000205F
:1002A00000900098012846D165484030006840F031
:1002B00080506349403108606248006840F4404023
:1002C000604908605E48083000685D490831086090
:1002D0000846006840F4004008600846006840F4A2
:1002E000A05008605848091F0860081F006840F0C7
:1002F0008070091F086000BF5148006800F000705E
:100300000028F9D040F20570504908604C48083088
:10031000006820F003004A49083108600846006878
:1003200040F00200086000BF45480830006800F057
:100330000C000828F8D10CBD10B54548006840F401
:100340007000434908603E48006840F001003C49A5
:10035000086000203A4908310860394800683D4982
:100360000840374908603C48091D0860081F0068BC
:1003700020F48020091F0860002031490C310860FA
:10038000FFF76CFF4FF0006031498039086010BD05
:1003900070B500200022022300240221284D0835D8
:1003A0002D6805F00C0020B1042806D0082834D1AF
:1003B00007E02A4D2A4E356033E02A4D284E35603D
:1003C0002FE01F4D2D1D2D68C5F380541C4D2D1D94
:1003D0002D6805F03F0154B1224DB5FBF1F5184EE3
:1003E000361D3668C6F3881605FB06F209E01B4D7C
:1003F000B5FBF1F5124E361D3668C6F3881605FBBF
:1004000006F20F4D2D1D2D68C5F301456D1C6B00C7
:10041000B2FBF3F5124E356003E0104D104E35601F
:1004200000BF00BF064D08352D68C5F303150E4EFD
:10043000705D0B4D2D68C540094E356070BD0000E4
:10044000003802400070004008544007003C024061
:1004500088ED00E0FFFFF6FE103000240024F400D9
:100460000800002000127A000C0000201CB50121B9
:10047000084601F035FF4FF48060009001208DF8B0
:10048000040000208DF8060003208DF805000120EF
:100490008DF807006946044801F084FC4FF4806140
:1004A000014801F0FBFC1CBD000002401CB501210D
:1004B000042001F015FF3020009000208DF804008A
:1004C00003208DF8050002208DF8070069463548A5
:1004D00001F068FC3021334801F0E2FC1CBD10B58E
:1004E000044614B10120304908702F48007830B319
:1004F00010212C4801F0B8FC01280BD04FF40071FA
:100500002A4801F0B1FC28B10121294801F0ACFCD6
:10051000012814D10A2001F07FFA00202249087036
:100520001021204801F0A0FC012800D110BD0121BC
:100530001F4801F099FC01280FD10420F6E7102193
:10054000184801F091FC012807D14102174801F039
:100550008BFC012801D1144908700020E6E710B592
:1005600014480078022812D11348007878B901F0B5
:1005700050F903F028FA0120104908604FF49670F2
:1005800001F04AFA00200E49C1F89C0205E0094832
:100590000078012801D100F057FD002005490870BE
:1005A00010BD0000000802401C00002000100240A6
:1005B0000000024001000020040000209C02404294
:1005C000000040421CB50121022001F089FE0121FA
:1005D000084601F085FE0121042001F081FE4FF460
:1005E0004070009001208DF804008DF80600032073
:1005F0008DF8050001208DF807006946FE4801F0DE
:10060000D1FB4FF48070009000208DF8060001208F
:100610008DF8060003208DF8050001208DF80700F5
:100620006946F64801F0BEFB4FF4007000900020D0
:100630008DF8060001208DF8060003208DF80500D6
:1006400001208DF807006946ED4801F0ABFB012061
:10065000EC490860EC49C1F8A402EC490860EC4997
:10066000C1F8A4021CBD10B5E348006820F4402086
:10067000E14908600846006840F4802008600120D5
:10068000E049091D0860E049C1F8A002042001F01A
:100690007BF90020DB49091D0860042001F074F992
:1006A0000020D949C1F8A00210BD10B5D248006899
:1006B00020F44020D04908600846006840F48020BB
:1006C00008600020CF490860CF49C1F8A402042087
:1006D00001F05AF90120CB490860CB49C1F8A402C6
:1006E000042001F051F910BD10B50024C248006883
:1006F00020F44020C04908600846006808600120D6
:10070000C049091D0860062001F03EF90120BE49DC
:10071000C1F8A002062001F037F907E0601CC4B25E
:10072000FA2C03DDFFF7C1FF012010BDB5487C386E
:1007300000680028F2D1B349086000BFF5E710B5A2
:100740000020B0490860AC48006820F44020AA4965
:1007500008600846006840F4802008600020AA492C
:10076000C1F8A4020A2001F00FF90120A549086090
:100770000A2001F009F90020A349C1F8A00210BD28
:1007800010B500209F4908609B48006820F4402075
:10079000994908600846006840F4802008600120FC
:1007A0009949C1F8A4020A2001F0EEF80120954908
:1007B00008600A2001F0E8F800209349C1F8A0027F
:1007C00010BD70B504468C48006820F440208A496A
:1007D00008600846006840F48020086000208949CD
:1007E0000860002517E0E0098649091D08606006D9
:1007F000040E0A2001F0C8F801208349C1F8A002C4
:100800000A2001F0C1F800207E4908600A2001F0AA
:10081000BBF8681CC5B2082DE5DB70BD70B5054698
:1008200000247548006820F4402073490860084699
:1008300000680860002616E00020724908600A205F
:1008400001F0A2F801207049C1F8A0026006040E70
:100850006C487C38006808B1601CC4B2052001F007
:1008600093F8701CC6B2082EE6DB15B9FFF788FFB7
:1008700001E0FFF764FF204670BD70B506460C46E8
:100880001546FFF7F0FE3046FFF79BFFFFF72CFF02
:100890002046FFF796FFFFF727FF2846FFF791FF57
:1008A000FFF722FFFFF701FF70BD70B504460D464C
:1008B0000026FFF7D8FE2046FFF783FFFFF714FF5F
:1008C0002846FFF77EFFFFF70FFFFFF7CCFE611C06
:1008D000C8B2FFF776FFFFF707FF322001F054F8A8
:1008E0000020FFF79BFF0646FFF7DFFE304670BD96
:1008F00010B54348006820F440204149086008468C
:10090000006840F4802008600020404908604049A9
:10091000C1F8A402042001F037F801203B49086027
:10092000042001F031F801203949C1F8A40210BDBA
:1009300010B50020354908603148006820F4402097
:100940002F4908600846006840F4802008600020B5
:100950002F49C1F8A4020A2001F016F801202B4902
:1009600008600A2001F010F800202A49C1F8A0020E
:1009700010BD10B50020254908602148006820F40A
:1009800040201F4908600846006840F48020086045
:1009900001201F49C1F8A4020A2000F0F5FF012040
:1009A0001A4908600A2000F0EFFF00201949C1F839
:1009B000A00210BD70B5054600241148006820F45F
:1009C00040200F490860084600680860002629E0BA
:1009D00000200E4908600A2000F0D6FF01200D49D2
:1009E000C1F8A0026006040E0B48006808B1601C44
:1009F000C4B2052012E000000004024000000240E2
:100A000000080240A082404200804042A0024042D2
:100A100000004142000040422402414200F0B4FF85
:100A2000701CC6B2082ED3DB15B9FFF7A2FF01E098
:100A3000FFF77EFF204670BD10B50024794800689E
:100A400020F44020774908600846006808600120CB
:100A500075490860062000F097FF01207349C1F82E
:100A6000A002062000F090FF07E0601CC4B2FA2C40
:100A700003DDFFF73DFF012010BD6B4880380068A3
:100A80000028F2D16A49086000BFF5E770B5044656
:100A90006448006820F44020624908600846006805
:100AA00040F480200860002061490860002516E0BD
:100AB000E0095D4908606006040E0A2000F064FF4A
:100AC00001205A49C1F8A0020A2000F05DFF002071
:100AD000574908600A2000F057FF681CC5B2082D6E
:100AE000E6DB70BD10B54F48006820F440204D494A
:100AF00008600846006840F48020086001204A49E8
:100B000008604A49C1F8A002042000F03DFF00201F
:100B100045490860042000F037FF00204349C1F830
:100B2000A002042000F030FF10BD70B504460D4651
:100B30000026FFF7D7FF2046FFF7A8FFFFF77CFF4F
:100B40002846FFF7A3FFFFF777FFFFF7CBFF611CF6
:100B5000C8B2FFF79BFFFFF76FFF322000F014FFD2
:100B60000020FFF727FF0646FFF7C2FE304670BDA4
:100B700070B506460C461546FFF7B4FF3046FFF742
:100B800085FFFFF759FF2046FFF780FFFFF754FF6F
:100B90002846FFF77BFFFFF74FFFFFF7A9FE70BD69
:100BA00070B5054600244FF4967000F035FFB02272
:100BB0000221E820FFF7DCFF642000F02DFF022176
:100BC000E820FFF7B2FF04464FF6FF7000EA042466
:100BD0000321E820FFF7A9FF204484B2204600F05B
:100BE000EDF9002070BD70B505460024B022022149
:100BF000E820FFF7BDFF642000F00EFF0221E8208F
:100C0000FFF793FF04464FF6FF7000EA0424032128
:100C1000E820FFF78AFF204484B2204600F0CEF996
:100C2000002070BD00080240A40241420000404282
:100C3000A002404210B5044600215E4802F00EF8C2
:100C40005C482C30006800205A492C310860084666
:100C500000682043086010BD10B50121554802F01E
:100C60006CFC18B30121534802F078FC524800781C
:100C7000E8B152480078401C504908700846007896
:100C80004D49097888421CD100204C4908704A49D6
:100C900008704B48008840F4004049490880002112
:100CA000444802F01BF86320FFF7C4FF09E0444802
:100CB000008840F400404249088000213D4802F08D
:100CC0000DF810BD7FB505460C460121202001F02E
:100CD00050FB0195ADF800400020ADF80800ADF8DC
:100CE00002006946334801F070FF01221146314885
:100CF00002F00CFC37208DF80C0000208DF80D0060
:100D000001208DF80E008DF80F0003A800F059FFA8
:100D10007FBD10B5044600214FF0804001F09EFFDA
:100D20004FF08040C06A00204FF08041C862084602
:100D3000C06A2043C86210BD10B50121880702F0C7
:100D4000FCFB70B11F48008840F400401D4908803A
:100D50000121880702F002FC00214FF0804001F0E1
:100D6000BDFF10BD7FB505460C460121084601F0C8
:100D700000FB0195ADF800400020ADF80800ADF88B
:100D8000020069464FF0804001F01FFF012211462A
:100D9000900702F0BBFB1C208DF80C0000208DF8A2
:100DA0000D0001208DF80E008DF80F0003A800F053
:100DB00008FF7FBD00140040440000201D000020FB
:100DC000200000202400002010B540F225515B488F
:100DD00001F004FE00B3594801F03EFDC4B258488A
:100DE000008800F40040B8B955480088B0F5C87FC5
:100DF00013DA0021534801F031FF5148008818B937
:100E00000121504801F06AFF4D4801880088401CCC
:100E10004B4A10804C48445405E04948008840F44F
:100E200000404749088010BD10B588B00446012134
:100E3000022001F055FA0121880401F09AFA3F4896
:100E400001F0ECFB07220B21404801F036F80722A5
:100E50000A213E4801F031F84FF44060059002202D
:100E60008DF818008DF8190000208DF81A00012067
:100E70008DF81B0005A9354800F094FF019400206F
:100E8000ADF80800ADF80A00ADF80C00ADF81000A0
:100E90000C20ADF80E0001A9284801F026FC012124
:100EA000264801F0AAFC012240F22551234801F016
:100EB0005AFD27208DF81C0002208DF81D0003200C
:100EC0008DF81E0001208DF81F0007A800F079FEA4
:100ED00042F2CF016320FFF7F5FE00201849088099
:100EE0000021184801F0FAFE4021144801F06DFD80
:100EF00008B010BD0FB438B505A800901448009A8A
:100F0000049903F005FB00200090114802F084FFD3
:100F100085B200240DE000BF4021084801F048FDE3
:100F20000028F9D00A48015D044801F091FC601CDA
:100F300084B2AC42EFDB38BC5DF814FB00480040E3
:100F40002000002000140040E806002000040240B9
:100F5000580500201CB50121032001F0C1F9F02043
:100F6000009001208DF8040000208DF80600032079
:100F70008DF8050001208DF8070069468E4800F0C5
:100F800011FF4FF40040009001208DF80400002074
:100F90008DF8060003208DF8050001208DF807006C
:100FA0006946864800F0FEFE0020854908608549B4
:100FB000C1F89C020120844908601CBD10B504469C
:100FC00082480088844201DA012000E00020002CE1
:100FD00001DD012100E00021084028B1012078490D
:100FE0000860642000F018FD00207549086010BDFD
:100FF00070B50446002074490860052000F00CFD1F
:1010000000251BE001207049086004F0010048B190
:10101000032000F001FD00206B490860012000F072
:10102000FBFC08E0012000F0F7FC002066490860A6
:10103000032000F0F1FC6410681CC5B2082DE1DB50
:1010400001206149086070BD2DE9F04190B0C822CF
:101050005FA161A002F00CFC20B962A1624802F01D
:10106000BDFE06460222711C08A802F0C9FE02223B
:10107000311D684602F0C4FE00208DF822008DF874
:1010800002009DF820003038C7B29DF821003038AA
:1010900000F0FF089DF800003038C4B29DF8010050
:1010A0003038C5B2C7B10A20FFF7A2FF4FF4FA707B
:1010B00000F0B2FCB8F1000F02DD4046FFF798FFE8
:1010C0004FF4FA7000F0A8FC0C20FFF791FF4FF4EA
:1010D000FA7000F0A1FC0EE06FB94046FFF788FF00
:1010E0004FF4FA7000F098FC0C20FFF781FF4FF4EA
:1010F000FA7000F091FC002C1EDD2046FFF778FF0F
:101100004FF4FA7000F088FC0A20FFF771FF4FF4EB
:10111000FA7000F081FC002D02DD2846FFF768FF21
:101120004FF4FA7000F078FC1120FFF761FF4FF4E4
:10113000FA7000F071FC1AE0CCB93DB91520FFF748
:1011400057FF4FF4FA7000F067FC10E00020FFF743
:101150004FFF4FF4FA7000F05FFC2846FFF748FF9E
:101160004FF4FA7000F058FC1120FFF741FF4FF4E4
:10117000FA7000F051FC10B0BDE8F08170B50B467C
:101180000024002114E04A1C0EE030F8115030F821
:101190001260B54207DD30F8114030F8125020F8E7
:1011A000115020F81240521C5D1CAA42EDDB491C74
:1011B0005D1CA942E7DB70BD000002400004024054
:1011C0009802404200004042BC824042020000209F
:1011D0002B43434C4B00000041542B43434C4B3FAB
:1011E000000000002C000000E80600202DE9F0417E
:1011F00006460D460027284602F00EFE80460024D3
:1012000009E0285D2C2800D17F1CB74202D1601C68
:10121000BDE8F081641C4445F3DB0020F8E72DE9CC
:10122000F0472DED028B90B00646002500272022C6
:10123000B34908A802F0B4FD2022B1492031684624
:1012400002F0AEFDAFA1304602F0C8FD05463046C3
:1012500002F0E2FD8046284602F0DEFD0446A8EBDF
:101260000404A21E314608A802F0CAFD0021A01EF7
:1012700008AA1154691C284602F0D5FDA81E02F0E8
:10128000DBFD824602F054FE41EC180B9FED9E0BF5
:1012900053EC102B51EC180B02F0DBFD41EC180B5A
:1012A00053EC182B9AA1684603F01EF995A16846E5
:1012B00002F094FD0746684602F0AEFD82463846CD
:1012C00002F0AAFDAAEB00090DEB0900791C02F05F
:1012D000AAFD8CA108A802F075FD694608A802F0D5
:1012E00071FD08A802F098FD401E08A900220A54CA
:1012F000884802F098FD10B0BDEC028BBDE8F08785
:1013000070B588B0044620227D496039684602F0F5
:1013100047FD002621460120FFF768FF05466A1EAB
:101320002146684602F06CFD0021681E0DF8001091
:10133000684602F071FDC6B2202E04DA032E02DDEB
:101340006846FFF76CFFB0EE480AF0EE680A08B096
:1013500070BD2DE9F0472DED028B90B006460025BB
:10136000002720226649403908A802F019FD2022F2
:1013700063492039684602F013FD62A1304602F04D
:101380002DFD0546304602F047FD8046284602F016
:1013900043FD0446A8EB0404A21E314608A802F04F
:1013A0002FFD0021A01E08AA1154691C284602F036
:1013B0003AFDA81E02F040FD824602F0B9FD41EC64
:1013C000180B9FED510B53EC102B51EC180B02F046
:1013D00040FD41EC180B53EC182B4DA1684603F06F
:1013E00083F848A1684602F0F9FC0746684602F017
:1013F00013FD8246384602F00FFDAAEB00090DEB03
:101400000900791C02F00FFD3EA108A802F0DAFCE9
:10141000694608A802F0D6FC08A802F0FDFC401EB0
:1014200008A900220A543B480F3802F0FCFC10B017
:10143000BDEC028BBDE8F08770B52DED028B88B056
:10144000044620222E498039684602F0A9FC002675
:101450009FED310BB0EE408AF0EE608A214601200C
:10146000FFF7C4FE05466A1E2146684602F0C8FC26
:101470000021681E0DF80010684602F0CDFCC6B2CF
:10148000202E04DA032E02DD6846FFF762FFB0EE7D
:10149000480AF0EE680A08B0BDEC028B70BD70B56A
:1014A0002DED048B044665799FED1B0BB0EE408A51
:1014B000F0EE608A9FED180BB0EE409AF0EE609A65
:1014C000412D1BD121460220FFF790FE0619304620
:1014D000FFF7B2FFB0EE408AF0EE608A21460420AA
:1014E000FFF784FE06193046FFF70AFFB0EE409A78
:1014F000F0EE609A0020BDEC048B70BD0120FAE78D
:10150000784E00082E0000000000000000004E4051
:10151000256C6600BF0200200000000000000000F3
:1015200010B540F225515A4801F058FA08B358480E
:1015300001F092F9C4B25748008800F40040C0B9E5
:1015400054480088B0F5C87F14DA00214FF080407D
:1015500001F084FB4F48008818B90121880701F089
:10156000BDFB4C4801880088401C4A4A10804A480C
:10157000445405E04748008840F40040454908804D
:1015800010BD10B588B004460121084600F0A8FE41
:101590000121480400F0EDFE3D4801F03FF807222C
:1015A00002213E4800F089FC072203213B4800F05D
:1015B00084FC0C20059002208DF818008DF819008D
:1015C00000208DF81A0001208DF81B0005A9334872
:1015D00000F0E8FB01940020ADF80800ADF80A0027
:1015E000ADF80C00ADF810000C20ADF80E0001A90C
:1015F000274801F07AF80121254801F0FEF8012280
:1016000040F22551224801F0AEF926208DF81C0049
:1016100002208DF81D0003208DF81E0001208DF89A
:101620001F0007A800F0CDFA42F2CF016320FFF7B8
:1016300099FB00201749088000214FF0804001F0FD
:101640004DFB08B010BD0FB438B505A80090144884
:10165000009A049902F05CFF00200090104802F00C
:10166000DBFB85B200240DE000BF4021084801F0FB
:101670009FF90028F9D00A48015D054801F0E8F813
:10168000601C84B2AC42EFDB38BC5DF814FB000098
:101690000044004022000020080A00200000024010
:1016A0007808002010B540F225516E4801F096F9F7
:1016B00008B36C4801F0D0F8C4B26B48008800F45D
:1016C0000040C0B968480088B0F5C87F14DA00212E
:1016D0004FF0804001F0C2FA6348008818B9012138
:1016E000880701F0FBFA604801880088401C5E4AC8
:1016F00010805E48445405E05B48008840F4004098
:101700005949088010BD10B588B00446012108462B
:1017100000F0E6FD0121C80400F02BFE514800F066
:101720007DFF08220021524800F0C7FB082201215A
:101730004F4800F0C2FB0320059002208DF81800EE
:101740008DF8190000208DF81A0001208DF81B007B
:1017500005A9474800F026FB01940020ADF80800D9
:10176000ADF80A00ADF80C00ADF810000420ADF89B
:101770000E0001A93B4800F0B8FF0121394801F0F3
:101780003CF8012240F22551364801F0ECF83420B3
:101790008DF81C0002208DF81D0003208DF81E001E
:1017A00001208DF81F0007A800F00BFA42F2CF01CC
:1017B0006320FFF7D7FA00202B49088000214FF063
:1017C000804001F08BFA08B010BD0FB438B505A801
:1017D00000902848009A049902F09AFE0020009098
:1017E000244802F019FB85B200240DE000BF40211F
:1017F0001C4801F0DDF80028F9D01E48015D1948A9
:1018000001F026F8601C84B2AC42EFDB38BC5DF816
:1018100014FB70B501261448008800F40040F0B1B4
:1018200011480088C0F30E05002405E00F48005D54
:1018300011490855601C84B2AC42F7DB00200E4908
:101840000855084602F0E8FA052803D90A48FFF7C8
:1018500026FE064600200549087003490880F0B2BC
:1018600070BD0000004C004024000020280D002026
:1018700000000240980B0020B80E002010B5102088
:1018800001F0BCFF68B10A2000F0C6F810212E4814
:1018900000F0EAFA10B901202C490870102001F07C
:1018A000B8FF10BD10B5202001F0A8FF80B10A20BC
:1018B00000F0B2F82021244800F0D6FA28B902201E
:1018C00022490870002022490860202001F0A1FF71
:1018D00010BD0EB5FEF7EAFD0121880300F05AFDA8
:1018E0000421022000F061FE0521022000F05DFECF
:1018F0003020009000208DF8040008208DF80500AD
:1019000001208DF80600684601F012FF17208DF8BF
:10191000080001208DF8090002208DF80A0001203E
:101920008DF80B0002A800F04CF90A208DF8080091
:1019300002208DF809008DF80A0001208DF80B00B7
:1019400002A800F03EF90EBD000802400100002090
:101950009C02404210B504466FF0040000F07EF98E
:10196000E11704EB5171C1F3C701394A11701046F8
:10197000007800EB4001C1EBC0104FF6FF7101EAA7
:10198000C0003449088010BD0146314A12784A43EC
:101990004FF0E0235A6100229A611A46126942F020
:1019A00001021A6100BF4FF0E022106900F001024D
:1019B0001AB100F48032002AF5D04FF0E02212690B
:1019C00022F001024FF0E0231A6100229A61704771
:1019D0000146204A12884A434FF0E0235A61002210
:1019E0009A611A46126942F001021A6100BF4FF073
:1019F000E022106900F001021AB100F48032002ADE
:101A0000F5D04FF0E022126922F001024FF0E023FE
:101A10001A6100229A61704770B504464FF407704E
:101A200094FBF0F0C6B24FF4077094FBF0F100FBAA
:101A3000114085B205E04FF40770FFF7C9FF701E33
:101A4000C6B2002EF7D115B12846FFF7C1FF70BD11
:101A5000260000202800002000BF704700BF484A31
:101A6000128802F04002002AF9D0C2B2444B9A8098
:101A7000704710B588B004460121084600F030FCDC
:101A80000121102000F086FC072209213D4800F0CA
:101A900014FA07220A213B4800F00FFA4FF4C06005
:101AA000069002208DF81C008DF81D0000208DF896
:101AB0001E0001208DF81F0006A9324800F072F9BF
:101AC00002940020ADF80C00ADF80E00ADF8100047
:101AD000ADF814000C20ADF8120002A9284800F05F
:101AE00004FE0121264800F088FE4021244800F031
:101AF0006CFF012240F22551214800F034FF2520DF
:101B00008DF8040003208DF805008DF806000120F3
:101B10008DF8070001A800F054F808B010BD10B50A
:101B200040F22551184800F059FF00B3164800F064
:101B300093FEC4B21548008800F40040B8B91348B9
:101B40000088C82814DA00214FF0804001F086F8A0
:101B50000E48008818B90121880701F0BFF80B482A
:101B600001880088401C094A10800948445405E057
:101B70000648008840F400400449088010BD000079
:101B800000100140000002400048004030000020EA
:101B9000101100200648804706480047FEE7FEE790
:101BA000FEE7FEE7FEE7FEE7FEE7FEE7FEE7FEE70D
:101BB000390300088901000832490143324A1160A3
:101BC000704770B5002100230F22C4781CB32E4C3F
:101BD000246804F4E064C4F5E064C4F30721C1F1AF
:101BE0000404E3B20A4144789C40E1B28478144092
:101BF00021430C07210E254C05786155047804F02B
:101C00001F050124AC4005786D11AD0005F1E025FC
:101C1000C5F8004109E0047804F01F050124AC4038
:101C20001B4D0678761145F8264070BD194A0A40CA
:101C30000243154B1B1F1A60704739B1124A121D1F
:101C400012680243104B1B1D1A6006E00E4A121D5B
:101C5000126882430C4B1B1D1A607047042808D180
:101C60004FF0E021096941F004014FF0E0221161D9
:101C700007E04FF0E021096921F004014FF0E02274
:101C8000116170470000FA050CED00E000E400E08F
:101C900080E100E080FFFF1F10B5044698488442B1
:101CA00008D10121084600F086FB0021012000F048
:101CB00082FB76E09348844208D10121022000F0A3
:101CC0007AFB0021022000F076FB6AE08E48844215
:101CD00008D10121042000F06EFB0021042000F057
:101CE0006AFB5EE08948844208D10121082000F0A7
:101CF00062FB0021082000F05EFB52E08448844231
:101D000008D10121102000F056FB0021102000F026
:101D100052FB46E07F48844208D10121202000F098
:101D20004AFB0021202000F046FB3AE07A4884423A
:101D300008D10121402000F03EFB0021402000F0AE
:101D40003AFB2EE07548844208D10121802000F042
:101D500032FB0021802000F02EFB22E070488442FC
:101D600008D10121801500F026FB0021A01500F00C
:101D700022FB16E06B48844208D10121401500F097
:101D80001AFB0021601500F016FB0AE06648844249
:101D900007D10121001500F00EFB0021201500F0F5
:101DA0000AFB10BDF0B50A4600210023002400BF45
:101DB0003DE0012505FA01F3156805EA03049C429C
:101DC00034D105684F000326BE40B5430560157940
:101DD0004E00B5400668354305601579012D02D0E7
:101DE0001579022D16D185684F000326BE40B543F4
:101DF000856055794E00B5408668354385604568F5
:101E000001268E40B5434560456896798E40B6B24E
:101E100035434560C5684F000326BE40B543C560E5
:101E2000D5794E00B540C6683543C560491C1029B8
:101E3000BFD3F0BD4FF6FF71016000210171417108
:101E40008171C171704708B54FF480320092009AD9
:101E50000A430092009AC261C161009AC261C269DC
:101E60000092C269009208BD0246002013690B402F
:101E70000BB1012000E0002070470146086980B2E4
:101E800070470246002053690B400BB1012000E06F
:101E9000002070470146486980B27047018370474F
:101EA000418370470AB1018300E04183704741617B
:101EB000704742694A4042617047F0B500230024F0
:101EC0004D07ED0E02FA05F3CE1000F1200555F88E
:101ED00026504E07F70E0F26BE40B543CF1000F137
:101EE000200646F82750CE1000F1200555F8265060
:101EF00045EA0304CE1000F1200545F82640F0BD68
:101F0000000002400004024000080240000C0240B1
:101F1000001002400014024000180240001C024061
:101F2000002002400024024000280240F9480068D6
:101F300040F00100F74908600020F64908310860C8
:101F4000F4480068F4490840F2490860F348091D64
:101F50000860F348EF4984310860F0481038091DE3
:101F60000860EC48006820F48020EA4908600020FE
:101F7000E8490C310860E7498C310860704700215E
:101F8000E44A921C117011460870704710B5014662
:101F90000022002300204A11012A02D1DD4C2368CF
:101FA00008E0022A03D1DB4C7034236802E0D94CEC
:101FB0007434236801F01F02012494401C400CB1CA
:101FC000012000E0002010BD38B500200090002462
:101FD000002500BF3120FFF7D9FF05460098401CBF
:101FE00000900098B0F5A04F01D0002DF2D0312024
:101FF000FFF7CCFF08B1012400E00024204638BDE3
:1020000001460020C34A106820F0F80040EAC100F1
:1020100010607047C349086070470021BD4A7032A4
:1020200011701170012802D004280AD104E00121A6
:10203000B84A7032117005E00521B64A703211704D
:1020400000E000BF00BF7047B7490860704770B537
:10205000049C41EA82150126C6EB530645EA064573
:10206000054345EA0465AB4E361D356070BDAD498C
:1020700008667047820142EA0172A64B84331A60F7
:102080007047A8498866704710B5830143EA016329
:1020900043EA02739F4C8834236010BDA14908674E
:1020A0007047A049C864704702460020994B083326
:1020B000186820F0EC6042EA01031843954B08339E
:1020C0001860704702460020924B0833186820F0D1
:1020D000784042EA010318438E4B0833186070477A
:1020E000014600208B4A0832106820F003000843A4
:1020F0001060704787480830006800F00C00704797
:1021000001460020834A0832106820F0F00008439E
:1021100010607047014600207E4A0832106820F4A3
:10212000E05008431060704701460020794A0832A9
:10213000106820F4604040EAC10010607047F0B5BC
:10214000002100220024022500260223714F0837B7
:102150003F6807F00C0121B1042905D0082937D1C7
:1021600005E0724F076036E0714F076033E0694F5A
:102170003F1D3F68C7F38056664F3F1D3F6807F01D
:102180003F036EB16A4FB7FBF3F7DFF888C10CF17C
:10219000040CDCF800C0CCF3881C07FB0CF40CE04A
:1021A000624FB7FBF3F7DFF86CC10CF1040CDCF8FD
:1021B00000C0CCF3881C07FB0CF4564F3F1D3F6852
:1021C000C7F301477F1C7D00B4FBF5F7076002E011
:1021D000564F076000BF00BF4E4F08373F6807F0FB
:1021E000F0010909534F7A5C0768D7404760494FAF
:1021F00008373F6807F4E051890A4E4F7A5C476818
:10220000D7408760434F08373F6807F46041490B68
:10221000484F7A5C4768D740C760F0BD002100F4A2
:102220004072B2F5407F0AD13A4A0832116821F46F
:10223000F811414A02401143364A08321160354ACA
:1022400070321268C0F30B031A43324B70331A60BA
:102250007047354944390860704733494039086050
:10226000704736490860704701460020294A8C3281
:10227000106820F01F004A1E1043264A8C3210605E
:10228000704701460020234A8C32106820F4F85031
:102290004A1E40EA02201F4A8C32106070470146F5
:1022A00000201C4A8C32106820F440100843106053
:1022B000704701460020174A8C32106820F4400015
:1022C00008431060704701460020124A8C321068A3
:1022D00020F4403008431060704719490860704787
:1022E00039B10C4A3032126802430A4B30331A605B
:1022F00006E0084A303212688243064B30331A60D7
:102300007047F9B1034A343212680243014B343347
:102310001A601CE000380240FFFFF6EA103000248B
:102320000030002000004742800E47420024F400A5
:1023300000127A0032000020FFFCFF0F5C014742D0
:10234000E01147428F4A126882438E4B1A607047F1
:1023500039B18C4A121D126802438A4B1B1D1A6048
:1023600006E0884A121D12688243864B1B1D1A60C4
:10237000704739B1834A0C3212680243814B0C33E7
:102380001A6006E07F4A0C32126882437D4B0C33A0
:102390001A60704739B17B4A103212680243794B98
:1023A00010331A6006E0774A103212688243754B88
:1023B00010331A60704739B1724A243A12680243E6
:1023C000704B243B1A6006E06E4A243A126882433E
:1023D0006C4B243B1A60704739B16A4A203A126844
:1023E0000243684B203B1A6006E0664A203A1268B6
:1023F0008243644B203B1A60704739B1614A1C3AF2
:10240000126802435F4B1C3B1A6006E05D4A1C3AAF
:10241000126882435B4B1C3B1A60704739B1594AC2
:10242000143A12680243574B143B1A6006E0554AAF
:10243000143A12688243534B143B1A60704739B107
:10244000504A103A126802434E4B103B1A6006E0A5
:102450004C4A103A126882434A4B103B1A6070474C
:1024600039B1484A1C3212680243464B1C331A6089
:1024700006E0444A1C3212688243424B1C331A6005
:10248000704739B13F4A2032126802433D4B203336
:102490001A6006E03B4A203212688243394B2033EF
:1024A0001A60704739B1374A243212680243354BFB
:1024B00024331A6006E0334A243212688243314BD7
:1024C00024331A60704739B12E4A2C321268024305
:1024D0002C4B2C331A6006E02A4A2C3212688243B5
:1024E000284B2C331A60704739B1264A30321268B3
:1024F0000243244B30331A6006E0224A303212681D
:102500008243204B30331A607047012808D11D499F
:102510003C31096841F008011A4A3C32116007E079
:1025200018493C31096821F00801164A3C32116013
:10253000704739B1134A273A12780243114B273BAF
:102540001A7006E00F4A273A127882430D4B273B58
:102550001A7070470B484030006840F0807009499D
:1025600040310860704701460020064A283A126848
:102570000A400AB1012000E00020704701492639D5
:10258000087070473438024010B501218803FFF706
:1025900056FF00214FF48040FFF751FF10BD1C494A
:1025A000086070471B490862704730B500228B07EE
:1025B0001C0F0F2303FA04F2154B08338C1053F849
:1025C00024309343124C08348D1044F825302346B0
:1025D0008C1053F824308C07240F00FA04F42343A2
:1025E0000B4C08348D1044F8253030BD0949DC31DE
:1025F000086070470849086070470020044920318E
:10260000096801F4807109B1012000E000207047E1
:1026100000380140000027420004274210B504465C
:10262000FA48844208D101211020FFF708FF002159
:102630001020FFF704FF57E0F548844209D101213B
:102640004804FFF7EBFE00214FF40030FFF7E6FEF1
:102650004AE0F048844209D101218804FFF7DEFEF8
:1026600000214FF48020FFF7D9FE3DE0EA48844284
:1026700009D10121C804FFF7D1FE00214FF4002049
:10268000FFF7CCFE30E0E548844209D1012108057E
:10269000FFF7C4FE00214FF48010FFF7BFFE23E0D8
:1026A000DF48844208D101212020FFF7C8FE002125
:1026B0002020FFF7C4FE17E0DA48844209D1012147
:1026C0008807FFF7ABFE00214FF08040FFF7A6FE22
:1026D0000AE0D548844207D101214005FFF79EFE5C
:1026E00000216005FFF79AFE10BD2DE9FF47054662
:1026F0000E460024A14600BFA046B08900B100BF2D
:102700002C8A24F44054F08804432C82AC8941F292
:102710000C608443B08831890843718908430443BD
:10272000AC81AC8A24F44074B0890443AC8268461E
:10273000FFF705FDB548854202D0B948854202D170
:10274000DDF80C9001E0DDF80890A88900F4004065
:1027500040B109EBC90000EB091031684900B0FB3A
:10276000F1F707E009EBC90000EB091031688900B7
:10277000B0FBF1F76420B7FBF0F0040120096421FD
:1027800001FB1078A88900F4004040B1322000EB32
:10279000C800B0FBF1F000F00700044308E032206D
:1027A00000EB08106421B0FBF1F000F00F000443CF
:1027B0002C81BDE8FF874FF4165101600021818014
:1027C000C18001810C21418100218181704710B5B8
:1027D00002460020108A20F470600B884C88234346
:1027E0008C882343CC8823431843108210BD0021DA
:1027F000018041808180C180704721B1828942F48B
:102800000052828104E082894DF6FF731A40828172
:102810007047028B02F47F420283028B0A430283D9
:10282000704721B1828942F40042828103E08289AB
:10283000C2F30E028281704721B1828A42F40062A3
:10284000828204E0828A4FF2FF731A4082827047CC
:10285000C1F308028280704701468888C0F30800EF
:102860007047028A4FF6F0731A400282028A0A43C6
:102870000282704721B1828942F00202828104E023
:1028800082894FF6FD731A408281704782894FF228
:10289000FF731A40828182890A4382817047028ACB
:1028A0004FF6DF731A400282028A0A43028270479F
:1028B00021B1028A42F48042028204E0028A4BF68D
:1028C000FF731A4002827047818941F001018181C2
:1028D000704721B1828A42F00802828204E0828A33
:1028E0004FF6F7731A4082827047028BD2B202838E
:1028F000028B42EA01220283704721B1828A42F0B0
:102900002002828204E0828A4FF6DF731A408282BC
:10291000704721B1828A42F01002828204E0828AEA
:102920004FF6EF731A4082827047828A4FF6FB732C
:102930001A408282828A0A438282704721B1828A47
:1029400042F00202828204E0828A4FF6FD731A404E
:10295000828270471AB1838A0B43838202E0838AA2
:102960008B4383827047F0B5034600240026002580
:10297000002040F66A17B94200D100BF1846C1F3E3
:10298000421401F01F06012707FA06F5012C01D1B8
:102990000C3004E0022C01D1103000E014301AB1E8
:1029A00007682F43076002E00768AF430760F0BD88
:1029B00002460020B1F5007F00D100BF13880B4014
:1029C0000BB1012000E00020704701F40072B2F565
:1029D000007F00D100BFCA430280704770B5024635
:1029E000002400230025002040F66A16B14200D1E1
:1029F00000BFC1F3421501F01F03012606FA03F3DD
:102A0000012D13D19689334017E0000000100140DA
:102A10000044004000480040004C0040005000408E
:102A20000014014000780040007C0040022D02D1DB
:102A3000168A334001E0968A33400C12012606FACA
:102A400004F41688344013B10CB1012000E00020DA
:102A500070BD10B50022002340F66A14A14200D1D7
:102A600000BF0A1201249440A3B2DC43048010BDCD
:102A700010B50446FE48844208D101210846FFF7FC
:102A8000DEFC00210120FFF7DAFC9DE0B4F1804F6D
:102A900008D101210846FFF7C1FC00210120FFF702
:102AA000BDFC91E0F348844208D101210220FFF7E8
:102AB000B5FC00210220FFF7B1FC85E0EE4884421E
:102AC00008D101210420FFF7A9FC00210420FFF711
:102AD000A5FC79E0E948844208D101210820FFF7EC
:102AE0009DFC00210820FFF799FC6DE0E44884423A
:102AF00008D101211020FFF791FC00211020FFF7E1
:102B00008DFC61E0DF48844208D101212020FFF7DD
:102B100085FC00212020FFF781FC55E0DA48844243
:102B200008D101210220FFF78AFC00210220FFF7D3
:102B300086FC49E0D548844209D101210804FFF709
:102B40007EFC00214FF48030FFF779FC3CE0D04858
:102B5000844209D101214804FFF771FC00214FF4A0
:102B60000030FFF76CFC2FE0CA48844209D10121F4
:102B70008804FFF764FC00214FF48020FFF75FFC1E
:102B800022E0C548844208D101214020FFF746FCDD
:102B900000214020FFF742FC16E0C048844208D1E3
:102BA00001218020FFF73AFC00218020FFF736FC4E
:102BB0000AE0BB48844207D101218015FFF72EFCB3
:102BC0000021A015FFF72AFC10BD00220288A84BA7
:102BD00098420ED0AC4B98420BD0B0F1804F08D049
:102BE000A44B984205D0A44B984202D0A34B9842E4
:102BF00004D14FF68F731A404B881A43A04B98426A
:102C000007D0A04B984204D04FF6FF431A400B89DF
:102C10001A4302804B68C3620B880385944B984229
:102C200002D0994B984201D18B7A0386012383828B
:102C300070474FF0FF3141600021018001814180E8
:102C4000817270470185828270470A46002101889F
:102C50004FF68F73194011430180704741627047EE
:102C6000C16270470146486A70470146088D704747
:102C700021B1028842F00202028004E002884FF68D
:102C8000FD731A400280704721B1028842F00402AD
:102C9000028004E002884FF6FB731A4002807047FE
:102CA00021B1028842F08002028004E002884FF6DF
:102CB0007F731A400280704702884FF6F7731A40FC
:102CC000028002880A430280704702884FF6FF4361
:102CD0001A40028002880A430280704721B10288AC
:102CE00042F00102028004E002884FF6FE731A40AF
:102CF0000280704770B5002400220023058C4FF637
:102D0000FE7635400584028C8388048B4FF68F75E0
:102D10002C40B51E2C400D882C43751E2A408D89F1
:102D20002A434D882A43524DA84202D0564DA8420C
:102D300013D14FF6F7752A40CD892A434FF6FB751C
:102D40002A408D882A434FF6FF652B404FF6FF55EA
:102D50002B400D8A2B434D8A2B43838004838D683F
:102D60004563028470BD70B5002400220023058CE9
:102D70004FF6EF7635400584028C8388048B48F645
:102D8000FF752C404FF6FF452C400D884FF6FF761F
:102D900006EA05252C434FF6DF752A408D8906EAA1
:102DA00005152A434D8806EA05152A43304DA842E9
:102DB00002D0354DA8421DD14FF67F752A40CD89EE
:102DC0004FF6FF7606EA05152A434FF6BF752A40EF
:102DD0008D8806EA05152A434FF6FF352B404FF242
:102DE000FF752B400D8A06EA85052B434D8A06EABE
:102DF00085052B43838004838D688563028470BDC1
:102E000070B5002400220023058C4FF6FF66354084
:102E10000584028C8388848B4FF68F752C404FF687
:102E2000FC752C400D882C434FF6FF552A408D89A8
:102E30004FF6FF7606EA05252A434D8806EA052562
:102E40002A430B4DA84202D00F4DA84238D14FF271
:102E5000FF752A40CD894FF6FF7606EA05252A43FD
:102E60004FF6FF352A408D8806EA05252A4319E0EA
:102E7000000001400004004000080040000C004039
:102E800000100040001400400004014000400140D8
:102E9000004401400048014000180040001C004070
:102EA000002000404EF6FF752B404DF6FF752B407D
:102EB0000D8A06EA05152B434D8A06EA05152B43B4
:102EC000838084838D68C563028470BD70B50022E1
:102ED00000230024058C4EF6FF7635400584038CD4
:102EE0008488828B48F6FF752A404FF6FF452A40BA
:102EF0000D884FF6FF7606EA05252A434DF6FF7545
:102F00002B408D8906EA05352B434D8806EA0535A9
:102F10002B43FE4DA84202D0FD4DA84208D14BF6EE
:102F2000FF752C400D8A4FF6FF7606EA85152C4377
:102F3000848082838D680564038470BD00210180D4
:102F40004180818081608181C1810182418270479D
:102F500070B50346002000241846183001258D4026
:102F6000ACB21D8CA5431D8409B108290AD100EB20
:102F7000610005684FF68F7635400560056815439A
:102F800005600FE00D1FC5F34E052844056848F69F
:102F9000FF763540056005684FF6FF7606EA0226A3
:102FA0003543056070BD4163704781637047C163FD
:102FB0007047016470470A460021018B4FF68F73FA
:102FC00019401143018370470A460021018B48F6DE
:102FD000FF7319404FF6FF7303EA0223194301837D
:102FE00070470A460021818B4FF68F7319401143B9
:102FF000818370470A460021818B48F6FF73194090
:103000004FF6FF7303EA02231943818370470A4690
:103010000021018B4FF6F77319401143018370476C
:103020000A460021018B4FF2FF7319404FF6FF73E0
:1030300003EA02231943018370470A460021818B6A
:103040004FF6F77319401143818370470A460021F8
:10305000818B4FF2FF7319404FF6FF7303EA02238F
:103060001943818370470A460021018B4FF6FB7399
:1030700019401143018370470A460021018B4FF626
:10308000FF3319404FF6FF7303EA0223194301830C
:1030900070470A460021818B4FF6FB73194011439C
:1030A000818370470A460021818B4FF6FF33194018
:1030B0004FF6FF7303EA02231943818370470A46E0
:1030C0000021018B4FF67F73194011430183704734
:1030D0000A460021018BC1F30E014FF6FF7303EA8C
:1030E00002231943018370470A460021818B4FF662
:1030F0007F7319401143818370470A460021818BF9
:10310000C1F30E014FF6FF7303EA022319438183D3
:1031100070470A460021018C4FF6FD731940114398
:10312000018470470A460021018C4FF6F77319405D
:103130001143018470470A460021018C4FF6DF736A
:1031400019404FF6FF7303EA0213194301847047D5
:103150000A460021018C4FF67F7319404FF6FF732A
:1031600003EA02131943018470470A460021018CC7
:103170004FF6FF5319404FF6FF7303EA022319433A
:10318000018470470A460021018C4FF2FF731940F9
:103190004FF6FF7303EA02231943018470470A467E
:1031A0000021018C4DF6FF7319404FF6FF7303EABF
:1031B000023319430184704730B5002301248C4049
:1031C000A3B2048C9C430484048C02FA01F5ADB2D2
:1031D0002C43048430BD30B5002304248C40A3B2BA
:1031E000048C9C430484048C02FA01F5ADB22C4398
:1031F000048430BD828B4FF2FF331A408283828B6E
:103200004FF6FF7303EA01231A4382837047F0B538
:103210000C461546002100220026078C4EF6FF7C46
:1032200007EA0C070784818B028C4FF6FF7707EAC9
:10323000043640F6FF4739404FF6FF7707EA052787
:1032400039434FF6FF7707EA0337394345F6FF77EF
:103250003A4046F480573A4381830284F0BD828B22
:103260004FF6F3731A408283828B0A43828370473E
:10327000F0B50C461546002100220026078C4FF6BB
:10328000FF6C07EA0C070784818B028C4FF6FF77EF
:1032900007EA04264FF60C7739404FF6FF7707EA26
:1032A00003172F4339434FF2FF573A4046F48077D4
:1032B0003A4381830284F0BD028B4FF2FF331A4000
:1032C0000283028B4FF6FF7303EA01231A43028342
:1032D0007047F0B50C461546002100220026078CE9
:1032E0004FF6EF7C07EA0C070784018B028C4FF640
:1032F000FF7707EA041640F6FF4739404FF6FF779D
:1033000007EA033739434FF6FF7703E00000014037
:103310000004014007EA052739434FF65F773A403A
:1033200046F010073A4301830284F0BD028B4FF64A
:10333000F3731A400283028B0A4302837047F0B58D
:103340000C46154600210022068C4FF6FE773E40C3
:103350000684018B028C4FF60C7631407E1C06EA07
:1033600003162E4331434FF6F576324044F0010602
:10337000324301830284F0BD70B505460C462088B7
:1033800050B92389A28861882846FFF7D8FFE188D1
:103390002846FFF7CBFF25E0208804280AD123899F
:1033A000A28861882846FFF794FFE1882846FFF746
:1033B00083FF17E0208808280AD12389A288618822
:1033C0002846FFF755FFE1882846FFF748FF09E048
:1033D0002389A28861882846FFF719FFE1882846DB
:1033E000FFF708FF70BD002101804180012181802D
:1033F0000021C180018170472DE9F04105460C464E
:1034000000260127608808B9022600E00026A0886F
:10341000012801D1022700E001272088A0B92389D3
:10342000A28861882846FFF78AFFE1882846FFF7CF
:103430007DFF23893A4631462846FFF74AFFE18857
:103440002846FFF739FF13E02389A28861882846C0
:10345000FFF73FFFE1882846FFF72EFF23893A4612
:1034600031462846FFF76BFFE1882846FFF75EFFED
:10347000BDE8F0810146486B70470146886B704794
:103480000146C86B70470146086C70470A884B8834
:103490001A438B881A43CB881A430B891A434B89EA
:1034A0001A438B891A43A0F84420704700210180F9
:1034B00041808180C180018141818181704731B12A
:1034C000B0F8442042F40042A0F8442005E0B0F8EF
:1034D0004420C2F30E02A0F84420704721B1828834
:1034E00042F00402828004E082884FF6FB731A40A7
:1034F0008280704721B1828842F00102828004E01C
:1035000082884FF6FE731A40828070471AB1838911
:103510000B43838102E083898B43838170478182DF
:10352000704702460020138A0B400BB1012000E0D7
:1035300000207047CA430282704730B5024600201F
:1035400000230024158A05EA0103958905EA010490
:1035500013B10CB1012000E0002030BDCA4302824B
:10356000704741EA0203A0F8483070471AB18389D6
:103570000B43838102E083898B438381704721B1B0
:10358000828842F00802828004E082884FF6F77356
:103590001A408280704701894FF6F872114001810C
:1035A00070470A46002101894FF68F731940114375
:1035B0000181704730B504460D4629462046FFF785
:1035C000F0FF208940F00700208130BD2DE9F04157
:1035D00004460D4616461F46602D06D13B46012285
:1035E00031462046FFF775FE05E03B460122314695
:1035F0002046FFF7A4FE29462046FFF7D2FF208988
:1036000040F007002081BDE8F08130B50C46002174
:103610000189C9B24FF6FF7505EA03251543254315
:103620002943018130BD2DE9F04105460E4617467C
:103630009846002443463A4631462846FFF7E5FFC0
:103640002C894FF6F870044044F007044FF68F7051
:10365000044044F070042C81BDE8F081F0B50446CC
:103660000D4616461F463B46324629462046FFF782
:10367000CCFF208940F480402081F0BD82884FF645
:103680008F731A40828082880A4382807047028941
:103690004FF6F8731A40028102890A43028170478B
:1036A00002894FF67F731A40028102890A43028120
:1036B0007047F0B50C4615461E4600210022002337
:1036C0000189028B038C4FF6F877394021434FF67E
:1036D000FC473A4040F201173A434FF6DD773B4052
:1036E0004FF6FF7707EA06172F433B43018102831A
:1036F0000384F0BD21B1828842F08002828004E020
:1037000082884FF67F731A4082807047A0F850106D
:1037100070470000002041490860091D0860091D2C
:103720000860091D08603E483C4914310860704734
:1037300000213A498279002A3AD00A461268036881
:103740009A430B461A600A1D126803689A430B1DC0
:103750001A60027911440A6803681A430A602F4A02
:103760000832126803689A432C4B08331A601A1DFA
:10377000126803689A43294B0C331A604279102A65
:103780000ED11A1F126803681A43244B08331A60BB
:103790001A1D126803681A43204B0C331A600DE09F
:1037A0001E49427911440A6803681A430A6005E019
:1037B000027911440A6803689A430A60704700213D
:1037C000016001710C214171002181717047134921
:1037D000103109680143114A1032116070470146E7
:1037E00000200E4A143212680A400AB1012000E09B
:1037F00000207047094914310860704701460020D5
:10380000064A143212680A400AB1012000E0002082
:10381000704702491431086070470000003C0140C5
:10382000FFFF7F00F249098801F4004149B10021FE
:10383000EF4A1288C2F30E02EE4B995408B1EC4ADB
:103840001180704770B504460025E948008800F4EF
:10385000004058B10020E6490988C1F30E01E54A4D
:1038600050542146104600F0B9FA0546284670BD6E
:103870002DE9F04105460E46144600270020DC499C
:103880000880FF2D0AD800BFDB48008800F0400008
:103890000028F9D0D849091D0D8003E02946D7A09A
:1038A000FDF728FB40F24C40844206D10B20D5495D
:1038B000087042F20F70FDF7BDF946B33CB31FE04C
:1038C000D148007860B10020FCF709FE07462021AE
:1038D000CE48FEF7C9FAB84202D10220BDE8F08115
:1038E0000A20FEF799F8C248008800F4004038B179
:1038F0003046FFF7A7FF00B106E00020BC49088072
:10390000601E80B20400DBD100BF04B90127384635
:10391000E4E72DE9F04105460C4601272DB324B319
:103920001CE00020FCF7DBFD06462021B748FEF72F
:103930009BFAB04202D10220BDE8F0810A20FEF7D6
:103940006BF8AB48008800F4004038B12846FFF718
:1039500079FF00B106E00020A5490880601E80B212
:103960000400DED100BF04B900273846E4E7014671
:10397000302905DB392903DCA1F13000C0B27047E2
:10398000412905DB462903DCA1F13700C0B2F6E787
:10399000612905DB662903DCA1F15700C0B2EEE71F
:1039A0000020ECE70146092903DC01F13000C0B238
:1039B00070470A2905DB0F2903DC01F13700C0B28B
:1039C000F6E73020F4E770B5002500BFC82290A1CB
:1039D00090A0FFF74DFF0028F8D100BF4FF496727A
:1039E0008BA190A0FFF744FF0028F7D190A13046AB
:1039F00000F07AFD17E04FF4C87293A13046FFF74C
:103A000037FF70B9914AA2F10F0191A0FDF772FA48
:103A10004FF47A7295A11A20FFF72AFF08B9681CA3
:103A2000C5B2601CC4B20DB9052CE4DB002070499E
:103A3000088070BD2DE9704380468946002600202D
:103A40006B490880C82272A18AA0FFF711FF08B154
:103A500046F00106002066490880C8226CA188A0B3
:103A6000FFF706FFA8B96EA1624800F0B7F9044657
:103A70005CB16BA1601C00F0B1F905460020287014
:103A8000621C82A1384600F02FFD002058490880B2
:103A900001E046F00206C8227FA181A0FFF7E8FE00
:103AA000A0B97EA1534800F099F904467EA12046B2
:103AB00000F094F9054600202870A21C7BA138462E
:103AC00000F012FD00204A49088001E046F004069B
:103AD000C82279A17AA0FFF7CBFEB0B972A1454800
:103AE00000F07CF9044670A1601C00F077F90546EF
:103AF0000020287068716B1C621C73A1384600F0AE
:103B0000F3FC00203A49088001E046F00806C8228C
:103B100072A174A0FFF7ACFEA0B941A1354800F036
:103B20005DF904465DA1601C00F058F905460020CF
:103B3000E870621C6EA1384600F0D6FC00202C49CB
:103B4000088001E046F010063046BDE8708310B5ED
:103B5000C8222FA169A0FFF78BFEC8222CA16FA05D
:103B6000FFF786FEC822002173A0FFF781FE052023
:103B7000FDF752FFC82226A173A0FFF779FEC822E5
:103B800023A175A0FFF774FE4FF4167279A17CA0F3
:103B9000FFF76EFE10BD10B50DE04FF4C870FDF7D5
:103BA0003BFF79480078401C774908700846007848
:103BB000052800D110BDC82215A174A0FFF758FE3A
:103BC0000028EAD1704908700120714908604FF45B
:103BD0009670FDF721FF00206E49C1F89C02C822B3
:103BE0000BA16DA0FFF744FEFFF7B1FF00BFE1E7B7
:103BF00020000020E80600200048004025730D0A40
:103C000000000000440000204500002000080240A1
:103C10004F4B000041542B435343533D2247534DD8
:103C20002200000041542B434D47463D3100000027
:103C300041542B434D47533D2231333336313239D2
:103C400039393230220000003E000000BF0200205F
:103C5000426C696E64206C6F636174696F6E2025BD
:103C600073204E2025732045000000002B434D4754
:103C7000533A000041542B4350494E3F000000008E
:103C800041542B434F50533F00000000D4CBD3AAE4
:103C9000C9CC3A25730000002B4353513A00000071
:103CA00041542B43535100002C000000D0C5BAC52D
:103CB000D6CAC1BF3A2573002B4342433A000000E5
:103CC00041542B4342430000B5E7B3D8B5E7C1BF29
:103CD0003A25732525202025736D56002B43434C30
:103CE0004B3A000041542B43434C4B3F0000000033
:103CF000C8D5C6DACAB1BCE43A25730041542B5387
:103D0000415042523D332C312C22436F6E747970F6
:103D100065222C22475052532200000041542B535D
:103D2000415042523D332C312C2241504E222C2204
:103D3000434D4E455422000041542B5341504252B2
:103D40003D312C310000000041542B434E54504370
:103D500049443D310000000041542B434E54503D36
:103D6000223230322E3132302E322E313031222C6E
:103D7000333200002B434E54503A203100000000F3
:103D800041542B434E545000040000204154000085
:103D90009C02404200004042415445300000000077
:103DA00040EA01039B0703D009E008C9121F08C0BD
:103DB000042AFAD203E011F8013B00F8013B521E3D
:103DC000F9D27047421E12F8013F002BFBD111F8C7
:103DD000013B02F8013B002BF9D1704730B5054695
:103DE0002A460B4612F8010B13F8014B08B1A0420A
:103DF000F8D01CB1002802D06D1CF1E7284630BD78
:103E000010B5044604E00B7800F8013B03B1491CEF
:103E1000521EF8D2204610BD421C10F8011B00298A
:103E2000FBD1801A7047034611F8012B00F8012BD3
:103E3000002AF9D11846704770B5064600F07AFBA3
:103E4000046805460A220021304600F0C9F82C60BB
:103E500070BD2DE9F04D81EA030404F0004B21F020
:103E6000004514464FF0000A23F0004150EA0502D5
:103E700020D054EA01021DD0C5F30A570246C5F30B
:103E80001303C1F31300C1F30A5640F4801543F441
:103E90008013A7EB0608101BD64608F2FD3873EB1B
:103EA000050002D308F1010801E092185B41B8F166
:103EB000000F03DA00200146BDE8F08D00204FF42A
:103EC0008011064684460EE0171B73EB050705D3E9
:103ED000121B63EB050306434CEA010C49084FEA49
:103EE000300092185B4150EA0107EDD152EA03001D
:103EF00012D082EA040083EA0501084305D0101BB2
:103F0000AB4106D20122002306E000224FF000431D
:103F100002E06FF0010253101AEB06004CEB08515F
:103F200010EB0A0041EB0B01BDE8F04D00F090B83A
:103F30000EB5C10F80EAE0700844CA07002140F2C4
:103F400033438DE80E000A460B4600F090F803B0AC
:103F500000BD30B50B46014600202022012409E0B7
:103F600021FA02F59D4205D303FA02F5491B04FA32
:103F700002F52844151EA2F10102F1DC30BD2DE945
:103F8000F05F0546002092469B46884606468146DD
:103F900040241BE0284641464746224600F01FFACF
:103FA00053465A46C01A914110D31146184622462C
:103FB00000F006FA2D1A67EB01084F462246012051
:103FC000002100F0FDF917EB00094E41201EA4F17D
:103FD0000104DFDC484631462A464346BDE8F09FEF
:103FE0002DE9F04791460F4680460446002614F816
:103FF000015B2DB100F016FA0068405DC007F6D1F4
:104000002B2D02D02D2D18D0641E4A46394620464D
:1040100000F00CFA27B13968A14201D1C7F800803D
:1040200071054FF002040BD54042002803DD00F07B
:1040300081FA0460A007BDE8F08746F48066E4E7F3
:104040000028F8DA00F076FA04606FF00040F2E73A
:1040500010B5141E73F1000408DA401C41F1000190
:1040600092185B411A4301D120F0010010BD2DE9E7
:10407000F04D92469B4611B1B1FA81F202E0B0FADE
:1040800080F22032904600F09BF904460F4640EA49
:104090000A0041EA0B0153465A46084313D0114621
:1040A00053EA010019D0C8F14002504600F097F9D8
:1040B00005460E4650465946424600F081F90843EF
:1040C00005D0012004E020463946BDE8F08D0020EF
:1040D000054346EAE0762C4337430A986305E40A31
:1040E000A0EB08000022FD0A44EA47540A3002D53A
:1040F00000200146E9E7010510196941DDE908459D
:1041000000196941BDE8F04DA2E72DE9FE4F804658
:1041100081EA0300C00F0C46009021F0004123F01B
:104120000045B8EB0200A94105D240462146904621
:104130001C460B46024623F00040104347D0270D93
:10414000C7F30A00C3F30A510290401A01904028B5
:104150006BDAC3F3130040F4801B0098924620B141
:104160000023D2EB030A63EB0B0B01985946C0F115
:104170004002504600F024F906460D465046594686
:10418000019A00F03CF910EB08006141002487EA35
:10419000115284EAE7731A4340D0009A62B3019A3D
:1041A000012A4FEA075215DC001B61EB02014FF0B8
:1041B000004202EA0752CDE90042001C41F580119D
:1041C00032462B46FFF753FF03B0BDE8F08F404661
:1041D0002146F9E7001B61EB0201001C41F5801349
:1041E00000185B412018A2F5001747EB030140EAD5
:1041F000D570B6196D4111E06D084FEA360645EAF3
:10420000C0754FEA0752001B61EB0201001C41F52B
:10421000801149084FEA30000019514132462B46BF
:1042200003B0BDE8F04FFFF713BF00980122400034
:104230000023D0EB020263EBE073009821464FEAC3
:10424000E074B8EB000061EB0401E9E783F00043A0
:104250005BE781F0004158E72DE9FE4F81EA030456
:1042600004F0004421F0004100944FF0000B23F0D3
:10427000004350EA01045ED052EA03045BD0C3F36A
:104280000A54C1F30A552C44A4F2F3340194A0FB60
:104290000254C1F3130141F48011C3F3130343F437
:1042A000801301FB024400FB034E840A970A44EA90
:1042B000815447EA8357A4FB076802958D0A05FBE2
:1042C00007854FEA932C04FB0C542705029D4FEA07
:1042D000065847EA1637B5EB08056EEB070C870E54
:1042E000920E47EA811742EA8312A7FB0201B6EB5E
:1042F0000B0164EB00042B0D43EA0C335E1844EB16
:104300001C50DA465146E7FB0201C5F313044FEA9D
:104310000B3343EA14534FEA0432019C43EA060389
:10432000A4F10C040294009CCDE900B4FFF79FFEB9
:1043300003B0BDE8F08F00200146F9E7C1F30A524F
:10434000C1F3130140F2FF3341F480119A4202DAC3
:1043500000200146704740F233439A42A2F23342B2
:1043600002DC524200F03BB800F02AB830B5041E1F
:1043700071F1000404DB4FF00044404264EB0101A2
:10438000141E73F1000405DB1C464FF0004352423B
:1043900063EB0403994208BF904230BD064C074DC1
:1043A00006E0E06840F0010394E807009847103405
:1043B000AC42F6D3FBF7ECFE404F0008604F00081C
:1043C000202A04DB203A00FA02F1002070479140D5
:1043D000C2F1200320FA03F3194390407047202ACA
:1043E00004DB203A21FA02F00021704721FA02F39F
:1043F000D040C2F120029140084319467047202A5C
:1044000006DBCB17203A41FA02F043EAE07306E0FC
:1044100041FA02F3D040C2F120029140084319460C
:1044200070470000004870473C4F00082DE9F05FDE
:1044300082460078002715468B460AF10104B946EA
:10444000302801D09DB113E014F8010B0127782822
:1044500003D0582801D045B10AE00DB1102D07D185
:104460000027102514F8010B02E0082500E00A25BA
:104470000026B0460EE005FB080005FB06F101270B
:1044800001EB10461FFA80F8B6F5803F00D3B9461D
:1044900014F8010B294600F018F80028EBDABBF1FC
:1044A000000F05D00FB1641E00E05446CBF8004069
:1044B000B9F1000F06D000F03DF802210160C81EDE
:1044C000BDE8F09F48EA0640FAE73A2800D23038C3
:1044D00020F02002412A01D3A2F13700884201D303
:1044E0004FF0FF30704700000FB4084B10B504A91F
:1044F00002AA039800F0E4F8044602A9002000F0A4
:1045000076FC204610BC5DF814FB0000EF4D00085F
:1045100037B514460846064B6A46214600F0D0F8E7
:1045200004466946002000F062FC20463EBD0000C3
:10453000EF4D0008004870475400002002E008C812
:10454000121F08C1002AFAD170477047002001E00D
:1045500001C1121F002AFBD1704700002DE9FF5F47
:10456000DDE90220010DDDF838B0024318D044F631
:104570001050A1F2FF3141430D140F98012820D0B3
:10458000A5EB0B00401C5FEA000A4FF00004474E09
:10459000DFF81C91A046504616D5CAF1000728E066
:1045A0000F98012443A2012808D0002100980F9BF6
:1045B000C0E90021C0E90243BDE8FF9F6FEA0B019B
:1045C000F4E7CBF10000DEE7074612E0F80707D07A
:1045D0002246334640464946FFF73EFE804689461E
:1045E0002246334610461946FFF736FE04460E466D
:1045F0007F10002FEAD1DDE90201BAF1000F424637
:104600004B4602DAFFF728FE01E0FFF722FC0446E2
:104610000E460022284BFFF7A9FE03D84FF0FF30CB
:10462000014607E00022254B20463146FFF76DFD8D
:10463000FFF784FE102409E0002C0ADB0A22002385
:10464000FFF79DFC019B30321A55641E50EA0102AF
:10465000F2D1641C019AC4F1110314440F9A012A87
:1046600003D0012208430DD10AE0084304D0002002
:104670004FF0110B0F9080E7A3EB0B056D1E0DE0C3
:104680005B4504DD4FF0000205F1010504E003DAAB
:104690004FF00002A5F10105002AECD000980F9917
:1046A000C0E90231C0E9004586E70000000024406F
:1046B0000000F03F300000000000F0430000E03F49
:1046C0002DE9FF4F95B09B468946064600250FE22F
:1046D000252877D100242746F84A0121059400E0D7
:1046E000044316F8013F203B01FA03F01042F7D1D2
:1046F00030782A2811D06FF02F033078A0F13002E3
:10470000092A16D8059A44F0020402EB820203EB50
:1047100042021044761C0590EFE759F8042B0592ED
:10472000002A03DA504244F40054059044F0020495
:10473000761C30782E2816D116F8010F44F00404A8
:104740002A280DD06FF02F023078A0F13003092B0A
:1047500009D807EB870302EB4303C718761CF3E77E
:1047600059F8047B761C30786C280FD006DC4C2876
:1047700017D068280DD06A2814D104E0742810D00E
:104780007A280FD10DE044F400140AE044F48014B8
:1047900001E044F440147278824202D104F580149E
:1047A000761C761C307866280BD013DC582877D01E
:1047B00009DC002875D04528F6D04628F4D04728D3
:1047C0001AD19DE118E0632835D0642879D0652896
:1047D00012D195E1702873D008DC6728F1D06928E0
:1047E0006FD06E280DD06F2806D1B5E073282CD07D
:1047F000752875D0782874D05A46179990476D1C43
:1048000075E1C4F30250022809D003280DD0D9F86D
:10481000001004280DD00D6009F1040967E1D9F8F2
:104820000010EA17C1E90052F6E7D9F800100D8030
:10483000F2E70D70F0E719F8041B8DF80010002066
:104840008DF80100EA46012003E059F804AB4FF06F
:10485000FF3061074FF0000102D40DE008F10101C3
:104860008846B9420FDA8045F8DB1AF808100029AB
:10487000F4D108E008F1010188468142FADB1AF818
:1048800008100029F6D105985B46A0EB08072146E1
:104890003846179A00F094FA284400EB080507E020
:1048A0004DE029E10DE01AF8010B5A46179990479F
:1048B000B8F10108F7D25B4621463846179A13E152
:1048C00042E00A220092C4F302524FF0000A022A88
:1048D00008D059F804CB032A4FEAEC710AD00DE056
:1048E00029E02AE009F1070121F00702F2E802C1FC
:1048F000914609E00FFA8CFC4FEAEC71042A03D1CF
:104900004FFA8CFC4FEAEC71002907DA0A460021C5
:10491000DCF1000C61EB02012D2202E0220504D53E
:104920002B228DF80420012203E0E20701D020228F
:10493000F7E7904659E00A2102E010220DE010212D
:104940004FF0000A00910BE010224FF0000A44F0F3
:1049500004040827009203E008224FF0000A0092A6
:10496000C4F30252022A05D059F804CB0021032ACD
:1049700008D009E009F1070121F00702F2E802C1BD
:10498000914605E01FFA8CFC042A01D10CF0FF0CC3
:104990004FF00008220728D5702806D0009B83F02E
:1049A000100353EA0A0305D00EE040228DF80420DC
:1049B000012208E05CEA010206D030228DF80420D2
:1049C0008DF8050002229046009B83F0080353EA0D
:1049D0000A030AD15CEA010201D1620705D530223F
:1049E0008DF804204FF001087F1E582804D034A011
:1049F00003900EA802900DE036A0F9E753466046FA
:104A0000009AFFF7BCFA84460398825C0298401E25
:104A1000029002705CEA0100F0D1029806A9081A1F
:104A200000F1200A600702D524F4803400E0012759
:104A3000574502DDA7EB0A0000E0002000EB0A0169
:104A4000009005984144401A0590E00306D45B4667
:104A50002146179A059800F0B3F90544002706E0AF
:104A600001A85A46C05D179990476D1C7F1C4745A9
:104A7000F6DBE0030CD55B462146179A059800F05B
:104A80009FF9054404E030205A46179990476D1C61
:104A90000099481E00900029F5DC08E00298029970
:104AA0005A460078491C0291179990476D1CBAF13B
:104AB0000001AAF1010AF1DC65E10000092801000A
:104AC0003031323334353637383961626364656684
:104AD0000000000030313233343536373839414246
:104AE000434445460000000000F058F90544761C98
:104AF000307800287FF4ECAD19B02846BDE8F08F7F
:104B0000620700D4062709F1070222F0070CFCE82F
:104B10000223E14603F000485FEA080C02D00FF2DE
:104B2000702C0DE05FEA045C02D50FF2682C07E000
:104B30005FEAC47C02D00FF2602C01E0AFF2700C8F
:104B40004FF0FF3823F00043CDF850C065280CD05B
:104B500006DC452809D046281DD047283DD13DE038
:104B6000662818D067287ED138E00021112F01DB9C
:104B7000112000E0781CCDE9000106A90EA8FFF77E
:104B8000EDFCDDE90F010E9A03910021009207F17F
:104B9000010A04914DE04FF000400097CDE901106B
:104BA00006A90EA8FFF7DAFCDDE90F0203920E9BBF
:104BB00011990022DDF80CA00093049211B9791C20
:104BC00000EB010AB7EB0A0004D4C0F1FF3007F193
:104BD000010A0490AAEB0700019044E0012F00DADB
:104BE00001270021112F01DD112000E03846CDE919
:104BF000000106A90EA8FFF7B1FCDDE90F010E9A2E
:104C00000391002104910092BA4621070CD4039924
:104C1000514500DA8A46BAF1010F05DD009AAAF182
:104C20000101515C302908D0B84202DA10F1040FBA
:104C300006DA0121CDE9011015E0AAF10101E9E749
:104C4000002805DC049901440491AAEB000102E06C
:104C5000411C514500DD8A460499401A401C0190D0
:104C60004FF000400290200704D40198504501DB2A
:104C7000CDF8048000208DF84F0002980DF14F0709
:104C8000B0F1004F25D02B200E9002984FF0020873
:104C900000280CDA404202902D200E9007E00A21F5
:104CA0000298FFF756F93031029007F8011DB8F16C
:104CB0000001A8F10108F2DC02980028EFD1791E6A
:104CC0000E980870307800F0200040F0450007F89A
:104CD000020D12A8C01B00F107081498007800B15B
:104CE000012000EB0A01019801EBE07105984144B5
:104CF000401A401E0590E00306D45B462146179AF1
:104D0000059800F05DF805441498007818B15A46EB
:104D1000179990476D1CE00324D55B462146179AEE
:104D2000059800F04DF805441CE00498002807DBC6
:104D3000DDE90301884203DD0098405C179901E03A
:104D4000179930205A469047049805F10105401CF8
:104D500004900198401E019004D12E205A461799C4
:104D600090476D1CBAF10001AAF1010ADDDC05E0F3
:104D700017F8010B5A46179990476D1CB8F10001BE
:104D8000A8F10108F4DC5B462146179A0598ABE6CA
:104D90002D0000002B000000200000002DE9F04154
:104DA000044600251E461746880404D405E039460B
:104DB0002020B0476D1C641EF9D52846BDE8F0815F
:104DC0002DE9F041044600251E469046C80301D552
:104DD000302700E02027880404D505E04146384606
:104DE000B0476D1C641EF9D52846BDE8F0810A68FD
:104DF000531C0B6010707047300000000000000072
:104E000000000000000000000000000000000000A2
:104E10000000000000000000300000000000000062
:104E20000000000000000000000000000000000082
:104E30000000000000000000300000000000000042
:104E40000000000000000000000000000000000062
:104E50000000000000000000300000000000000022
:104E60000000000000000000000000000000000042
:104E70000000000000000000300000000000000002
:104E80000000000000000000000000000000000022
:104E900000000000000000003000000000000000E2
:104EA0000000000000000000000000000000000002
:104EB0000000000000000000004040404040404032
:104EC00040404141414141404040404040404040DD
:104ED0004040404040404040400502020202020281
:104EE00002020202020202020220202020202020D0
:104EF00020202002020202020202909090909090E4
:104F000010101010101010101010101010101010A1
:104F10001010101002020202020288888888888815
:104F20000808080808080808080808080808080801
:104F3000080808080202020240000000B94E0008FA
:104F4000604F000800000020580000003C450008A9
:104F5000B84F000858000020801500004C4500089C
:104F60000000DC0500000000007A030A00000000D9
:104F70000000000001020304060708090100000008
:104F80000000000000000000000000000000000021
:104F900000000000000001020304010203040607F0
:104FA00008090000000000000000000000000000F0
:084FB0000000000000000000F9
:040000050800018965
:00000001FF
