:020000040800F2
:1000000070190020A51F00085102000853020008C3
:10001000570200085B0200085F02000800000000B1
:100020000000000000000000000000006302000863
:10003000650200080000000067020008690200086D
:10004000BF1F0008BF1F0008BF1F0008BF1F000818
:10005000BF1F0008BF1F0008BF1F0008BF1F000808
:10006000BF1F0008BF1F00088D180008BF1F000831
:10007000BF1F0008BF1F0008BF1F0008BF1F0008E8
:10008000BF1F0008BF1F0008BF1F0008BF1F0008D8
:10009000BF1F0008BF1F0008BF1F0008B5180008D9
:1000A000BF1F0008BF1F0008BF1F0008BF1F0008B8
:1000B000490D0008BF1F0008A9420008BF1F000823
:1000C000BF1F0008BF1F0008BF1F0008BF1F000898
:1000D000BF1F00082F1F000831150008D90D0008A8
:1000E000BF1F0008BF1F0008BF1F0008BF1F000878
:1000F000BF1F0008BF1F0008BF1F0008BF1F000868
:10010000BF1F0008BF1F0008BF1F0008BF1F000857
:10011000B5160008BF1F0008BF1F0008690C0008C3
:10012000BF1F0008BF1F0008BF1F0008BF1F000837
:10013000BF1F0008BF1F0008BF1F0008BF1F000827
:10014000BF1F0008BF1F0008BF1F0008BF1F000817
:10015000BF1F0008BF1F0008BF1F0008BF1F000807
:10016000BF1F0008BF1F0008BF1F0008BF1F0008F7
:10017000BF1F0008BF1F0008BF1F0008BF1F0008E7
:10018000BF1F0008BF1F0008DFF80CD005F05EFE9F
:10019000004800479D010008701900200024002637
:1001A0004FF4A06001F010FFA82001F0DBFD00F08B
:1001B00065F900F083F900F0D5FE00F00BFA01F0CC
:1001C0005AFC4FF4165001F0A6FA4FF4E13000F05B
:1001D00033FE01F086FB35E000F0C9F94A4641469E
:1001E000384601F076FD06461EB91748008800F033
:1001F00002FD42F2107094FBF0F100FB114068B96F
:1002000007E0681CC5B2642001F00EFE052D00D188
:1002100003E001F006FB0028F3D100BFC82001F085
:1002200003FE204604EBD0714910A4EB410139B91B
:100230000648006808B9012000E000200349086072
:10024000601C84B2C8E7000002000020A8024042FF
:10025000704700BFFEE700BFFEE700BFFEE700BF3C
:10026000FEE7704770477047704700000CB50020EC
:10027000019000907648006840F48030744908602E
:1002800000BF7348006800F4003000900198401CE3
:100290000190009818B90198B0F5A04FF1D16C48C1
:1002A000006800F4003010B10120009001E000204F
:1002B00000900098012846D165484030006840F021
:1002C00080506349403108606248006840F4404013
:1002D000604908605E48083000685D490831086080
:1002E0000846006840F4004008600846006840F492
:1002F000A05008605848091F0860081F006840F0B7
:100300008070091F086000BF5148006800F000704D
:100310000028F9D040F20570504908604C48083078
:10032000006820F003004A49083108600846006868
:1003300040F00200086000BF45480830006800F047
:100340000C000828F8D10CBD10B54548006840F4F1
:100350007000434908603E48006840F001003C4995
:10036000086000203A4908310860394800683D4972
:100370000840374908603C48091D0860081F0068AC
:1003800020F48020091F0860002031490C310860EA
:10039000FFF76CFF4FF0006031498039086010BDF5
:1003A00070B500200022022300240221284D0835C8
:1003B0002D6805F00C0020B1042806D0082834D19F
:1003C00007E02A4D2A4E356033E02A4D284E35602D
:1003D0002FE01F4D2D1D2D68C5F380541C4D2D1D84
:1003E0002D6805F03F0154B1224DB5FBF1F5184ED3
:1003F000361D3668C6F3881605FB06F209E01B4D6C
:10040000B5FBF1F5124E361D3668C6F3881605FBAE
:1004100006F20F4D2D1D2D68C5F301456D1C6B00B7
:10042000B2FBF3F5124E356003E0104D104E35600F
:1004300000BF00BF064D08352D68C5F303150E4EED
:10044000705D0B4D2D68C540094E356070BD0000D4
:10045000003802400070004008544007003C024051
:1004600088ED00E0FFFFF6FE103000240024F400C9
:100470000800002000127A000C0000201CB50121A9
:10048000084602F035F94FF48060009001208DF8A5
:10049000040000208DF8060003208DF805000120DF
:1004A0008DF807006946044801F084FE4FF480612E
:1004B000014801F0FBFE1CBD000002401CB50121FB
:1004C000042002F015F93020009000208DF804007F
:1004D00003208DF8050002208DF807006946354895
:1004E00001F068FE3021334801F0E2FE1CBD10B57A
:1004F000044614B10120304908702F48007830B309
:1005000010212C4801F0B8FE01280BD04FF40071E7
:100510002A4801F0B1FE28B10121294801F0ACFEC2
:10052000012814D10A2001F07FFC00202249087024
:100530001021204801F0A0FE012800D110BD0121AA
:100540001F4801F099FE01280FD10420F6E7102181
:10055000184801F091FE012807D14102174801F027
:100560008BFE012801D1144908700020E6E710B580
:1005700014480078022812D11348007878B901F0A5
:1005800050F904F081FE0120104908604FF4967084
:1005900001F04AFC00200E49C1F89C0205E0094820
:1005A0000078012801D100F057FD002005490870AE
:1005B00010BD0000000802401C0000200010024096
:1005C0000000024001000020040000209C02404284
:1005D000000040421CB50121022002F089F80121EF
:1005E000084602F085F80121042002F081F84FF45A
:1005F0004070009001208DF804008DF80600032063
:100600008DF8050001208DF807006946FE4801F0CD
:10061000D1FD4FF48070009000208DF8060001207D
:100620008DF8060003208DF8050001208DF80700E5
:100630006946F64801F0BEFD4FF4007000900020BE
:100640008DF8060001208DF8060003208DF80500C6
:1006500001208DF807006946ED4801F0ABFD01204F
:10066000EC490860EC49C1F8A402EC490860EC4987
:10067000C1F8A4021CBD10B5E348006820F4402076
:10068000E14908600846006840F4802008600120C5
:10069000E049091D0860E049C1F8A002042001F00A
:1006A0007BFB0020DB49091D0860042001F074FB7E
:1006B0000020D949C1F8A00210BD10B5D248006889
:1006C00020F44020D04908600846006840F48020AB
:1006D00008600020CF490860CF49C1F8A402042077
:1006E00001F05AFB0120CB490860CB49C1F8A402B4
:1006F000042001F051FB10BD10B50024C248006871
:1007000020F44020C04908600846006808600120C5
:10071000C049091D0860062001F03EFB0120BE49CA
:10072000C1F8A002062001F037FB07E0601CC4B24C
:10073000FA2C03DDFFF7C1FF012010BDB5487C385E
:1007400000680028F2D1B349086000BFF5E710B592
:100750000020B0490860AC48006820F44020AA4955
:1007600008600846006840F4802008600020AA491C
:10077000C1F8A4020A2001F00FFB0120A54908607E
:100780000A2001F009FB0020A349C1F8A00210BD16
:1007900010B500209F4908609B48006820F4402065
:1007A000994908600846006840F4802008600120EC
:1007B0009949C1F8A4020A2001F0EEFA01209549F6
:1007C00008600A2001F0E8FA00209349C1F8A0026D
:1007D00010BD70B504468C48006820F440208A495A
:1007E00008600846006840F48020086000208949BD
:1007F0000860002517E0E0098649091D08606006C9
:10080000040E0A2001F0C8FA01208349C1F8A002B1
:100810000A2001F0C1FA00207E4908600A2001F098
:10082000BBFA681CC5B2082DE5DB70BD70B5054686
:1008300000247548006820F4402073490860084689
:1008400000680860002616E00020724908600A204F
:1008500001F0A2FA01207049C1F8A0026006040E5E
:100860006C487C38006808B1601CC4B2052001F0F7
:1008700093FA701CC6B2082EE6DB15B9FFF788FFA5
:1008800001E0FFF764FF204670BD70B506460C46D8
:100890001546FFF7F0FE3046FFF79BFFFFF72CFFF2
:1008A0002046FFF796FFFFF727FF2846FFF791FF47
:1008B000FFF722FFFFF701FF70BD70B504460D463C
:1008C0000026FFF7D8FE2046FFF783FFFFF714FF4F
:1008D0002846FFF77EFFFFF70FFFFFF7CCFE611CF6
:1008E000C8B2FFF776FFFFF707FF322001F054FA96
:1008F0000020FFF79BFF0646FFF7DFFE304670BD86
:1009000010B54348006820F440204149086008467B
:10091000006840F480200860002040490860404999
:10092000C1F8A402042001F037FA01203B49086015
:10093000042001F031FA01203949C1F8A40210BDA8
:1009400010B50020354908603148006820F4402087
:100950002F4908600846006840F4802008600020A5
:100960002F49C1F8A4020A2001F016FA01202B49F0
:1009700008600A2001F010FA00202A49C1F8A002FC
:1009800010BD10B50020254908602148006820F4FA
:1009900040201F4908600846006840F48020086035
:1009A00001201F49C1F8A4020A2001F0F5F9012035
:1009B0001A4908600A2001F0EFF900201949C1F82E
:1009C000A00210BD70B5054600241148006820F44F
:1009D00040200F490860084600680860002629E0AA
:1009E00000200E4908600A2001F0D6F901200D49C7
:1009F000C1F8A0026006040E0B48006808B1601C34
:100A0000C4B2052012E000000004024000000240D1
:100A100000080240A082404200804042A0024042C2
:100A200000004142000040422402414201F0B4F97A
:100A3000701CC6B2082ED3DB15B9FFF7A2FF01E088
:100A4000FFF77EFF204670BD10B50024794800688E
:100A500020F44020774908600846006808600120BB
:100A600075490860062001F097F901207349C1F823
:100A7000A002062001F090F907E0601CC4B2FA2C35
:100A800003DDFFF73DFF012010BD6B488038006893
:100A90000028F2D16A49086000BFF5E770B5044646
:100AA0006448006820F440206249086008460068F5
:100AB00040F480200860002061490860002516E0AD
:100AC000E0095D4908606006040E0A2001F064F93F
:100AD00001205A49C1F8A0020A2001F05DF9002066
:100AE000574908600A2001F057F9681CC5B2082D63
:100AF000E6DB70BD10B54F48006820F440204D493A
:100B000008600846006840F48020086001204A49D7
:100B100008604A49C1F8A002042001F03DF9002014
:100B200045490860042001F037F900204349C1F825
:100B3000A002042001F030F910BD70B504460D4646
:100B40000026FFF7D7FF2046FFF7A8FFFFF77CFF3F
:100B50002846FFF7A3FFFFF777FFFFF7CBFF611CE6
:100B6000C8B2FFF79BFFFFF76FFF322001F014F9C7
:100B70000020FFF727FF0646FFF7C2FE304670BD94
:100B800070B506460C461546FFF7B4FF3046FFF732
:100B900085FFFFF759FF2046FFF780FFFFF754FF5F
:100BA0002846FFF77BFFFFF74FFFFFF7A9FE70BD59
:100BB00070B5054600244FF4967001F035F9B02267
:100BC0000221E820FFF7DCFF642001F02DF902216B
:100BD000E820FFF7B2FF04464FF6FF7000EA042456
:100BE0000321E820FFF7A9FF204484B2204600F04B
:100BF000EDF9002070BD70B505460024B022022139
:100C0000E820FFF7BDFF642001F00EF90221E82083
:100C1000FFF793FF04464FF6FF7000EA0424032118
:100C2000E820FFF78AFF204484B2204600F0CEF986
:100C3000002070BD00080240A40241420000404272
:100C4000A002404210B5044600215E4802F00EFAB0
:100C50005C482C30006800205A492C310860084656
:100C600000682043086010BD10B50121554802F00E
:100C70006CFE18B30121534802F078FE5248007808
:100C8000E8B152480078401C504908700846007886
:100C90004D49097888421CD100204C4908704A49C6
:100CA00008704B48008840F4004049490880002102
:100CB000444802F01BFA6320FFF7C4FF09E04448F0
:100CC000008840F400404249088000213D4802F07D
:100CD0000DFA10BD7FB505460C460121202001F01C
:100CE00050FD0195ADF800400020ADF80800ADF8CA
:100CF00002006946334802F070F90122114631487A
:100D000002F00CFE37208DF80C0000208DF80D004D
:100D100001208DF80E008DF80F0003A801F059F99D
:100D20007FBD10B5044600214FF0804002F09EF9CF
:100D30004FF08040C06A00204FF08041C8620846F2
:100D4000C06A2043C86210BD10B50121880702F0B7
:100D5000FCFD70B11F48008840F400401D49088028
:100D60000121880702F002FE00214FF0804002F0CE
:100D7000BDF910BD7FB505460C460121084601F0BE
:100D800000FD0195ADF800400020ADF80800ADF879
:100D9000020069464FF0804002F01FF9012211461F
:100DA000900702F0BBFD1C208DF80C0000208DF890
:100DB0000D0001208DF80E008DF80F0003A801F042
:100DC00008F97FBD001400406C0100201D000020C8
:100DD000200000202400002010B540F225515B487F
:100DE00002F004F800B3594801F03EFFC4B258487D
:100DF000008800F40040B8B955480088B0F5C87FB5
:100E000013DA0021534802F031F95148008818B92B
:100E10000121504802F06AF94D4801880088401CC1
:100E20004B4A10804C48445405E04948008840F43F
:100E300000404749088010BD10B588B00446012124
:100E4000022001F055FC0121880401F09AFC3F4882
:100E500001F0ECFD07220B21404801F036FA072291
:100E60000A213E4801F031FA4FF44060059002201B
:100E70008DF818008DF8190000208DF81A00012057
:100E80008DF81B0005A9354801F094F90194002064
:100E9000ADF80800ADF80A00ADF80C00ADF8100090
:100EA0000C20ADF80E0001A9284801F026FE012112
:100EB000264801F0AAFE012240F22551234801F004
:100EC0005AFF27208DF81C0002208DF81D000320FA
:100ED0008DF81E0001208DF81F0007A801F079F899
:100EE00042F2CF016320FFF7F5FE00201849088089
:100EF0000021184802F0FAF84021144801F06DFF73
:100F000008B010BD0FB438B505A800901448009A79
:100F1000049905F06DF800200090114804F042FC9F
:100F200085B200240DE000BF4021084801F048FFD1
:100F30000028F9D00A48015D044801F091FE601CC8
:100F400084B2AC42EFDB38BC5DF814FB00480040D3
:100F5000200000200014004080080020000402400F
:100F6000F00600201CB50121032001F0C1FBF02098
:100F7000009001208DF8040000208DF80600032069
:100F80008DF8050001208DF8070069468E4801F0B4
:100F900011F94FF40040009001208DF8040000206A
:100FA0008DF8060003208DF8050001208DF807005C
:100FB0006946864801F0FEF80020854908608549A9
:100FC000C1F89C020120844908601CBD10B504468C
:100FD00082480088844201DA012000E00020002CD1
:100FE00001DD012100E00021084028B101207849FD
:100FF0000860642000F018FF00207549086010BDEB
:1010000070B50446002074490860052000F00CFF0C
:1010100000251BE001207049086004F0010048B180
:10102000032000F001FF00206B490860012000F060
:10103000FBFE08E0012000F0F7FE00206649086092
:10104000032000F0F1FE6410681CC5B2082DE1DB3E
:1010500001206149086070BD2DE9F04190B0C822BF
:101060005FA161A003F0BAFE20B962A1624804F05A
:101070007BFB06460222711C08A804F087FB0222B3
:10108000311D684604F082FB00208DF822008DF8A7
:1010900002009DF820003038C7B29DF8210030389A
:1010A00000F0FF089DF800003038C4B29DF8010040
:1010B0003038C5B2C7B10A20FFF7A2FF4FF4FA706B
:1010C00000F0B2FEB8F1000F02DD4046FFF798FFD6
:1010D0004FF4FA7000F0A8FE0C20FFF791FF4FF4D8
:1010E000FA7000F0A1FE0EE06FB94046FFF788FFEE
:1010F0004FF4FA7000F098FE0C20FFF781FF4FF4D8
:10110000FA7000F091FE002C1EDD2046FFF778FFFC
:101110004FF4FA7000F088FE0A20FFF771FF4FF4D9
:10112000FA7000F081FE002D02DD2846FFF768FF0F
:101130004FF4FA7000F078FE1120FFF761FF4FF4D2
:10114000FA7000F071FE1AE0CCB93DB91520FFF736
:1011500057FF4FF4FA7000F067FE10E00020FFF731
:101160004FFF4FF4FA7000F05FFE2846FFF748FF8C
:101170004FF4FA7000F058FE1120FFF741FF4FF4D2
:10118000FA7000F051FE10B0BDE8F08170B50B466A
:101190000024002114E04A1C0EE030F8115030F811
:1011A0001260B54207DD30F8114030F8125020F8D7
:1011B000115020F81240521C5D1CAA42EDDB491C64
:1011C0005D1CA942E7DB70BD000002400004024044
:1011D0009802404200004042BC824042020000208F
:1011E0002B43434C4B00000041542B43434C4B3F9B
:1011F000000000002C000000800800202DE9F041D4
:1012000006460D460027284604F0CCFA8046002406
:1012100009E0285D2C2800D17F1CB74202D1601C58
:10122000BDE8F081641C4445F3DB0020F8E72DE9BC
:10123000F0472DED028B90B00646002500272022B6
:10124000B34908A804F072FA2022B1492031684657
:1012500004F06CFAAFA1304604F086FA0546304639
:1012600004F0A0FA8046284604F09CFA0446A8EB55
:101270000404A21E314608A804F088FA0021A01E2A
:1012800008AA1154691C284604F0A1FAA81E04F00B
:10129000B6FA824604F048FC41EC180B9FED9E0B19
:1012A00053EC102B51EC180B04F0CFFB41EC180B56
:1012B00053EC182B9AA1684604F086FE95A1684667
:1012C00004F052FA0746684604F06CFA8246384643
:1012D00004F068FAAAEB00090DEB0900791C04F090
:1012E00076FA8CA108A804F033FA694608A804F03D
:1012F0002FFA08A804F056FA401E08A900220A5442
:10130000884804F064FA10B0BDEC028BBDE8F087A9
:1013100070B588B0044620227D496039684604F0E3
:1013200005FA002621460120FFF768FF05466A1EE0
:101330002146684604F02AFA0021681E0DF80010C4
:10134000684604F02FFAC6B2202E04DA032E02DD1E
:101350006846FFF76CFFB0EE480AF0EE680A08B086
:1013600070BD2DE9F0472DED028B90B006460025AB
:10137000002720226649403908A804F0D7F9202226
:1013800063492039684604F0D1F962A1304604F07F
:10139000EBF90546304604F005FA8046284604F08D
:1013A00001FA0446A8EB0404A21E314608A804F082
:1013B000EDF90021A01E08AA1154691C284604F06A
:1013C00006FAA81E04F01BFA824604F0ADFB41ECBD
:1013D000180B9FED510B53EC102B51EC180B04F034
:1013E00034FB41EC180B53EC182B4DA1684604F06C
:1013F000EBFD48A1684604F0B7F90746684604F0DB
:10140000D1F98246384604F0CDF9AAEB00090DEB7C
:101410000900791C04F0DBF93EA108A804F098F952
:10142000694608A804F094F908A804F0BBF9401E26
:1014300008A900220A543B480F3804F0C8F910B03C
:10144000BDEC028BBDE8F08770B52DED028B88B046
:10145000044620222E498039684604F067F90026A8
:101460009FED310BB0EE408AF0EE608A21460120FC
:10147000FFF7C4FE05466A1E2146684604F086F959
:101480000021681E0DF80010684604F08BF9C6B202
:10149000202E04DA032E02DD6846FFF762FFB0EE6D
:1014A000480AF0EE680A08B0BDEC028B70BD70B55A
:1014B0002DED048B044665799FED1B0BB0EE408A41
:1014C000F0EE608A9FED180BB0EE409AF0EE609A55
:1014D000412D1BD121460220FFF790FE0619304610
:1014E000FFF7B2FFB0EE408AF0EE608A214604209A
:1014F000FFF784FE06193046FFF70AFFB0EE409A68
:10150000F0EE609A0020BDEC048B70BD0120FAE77C
:10151000146A00082E0000000000000000004E4089
:10152000256C660057040020000000000000000049
:1015300010B540F225515A4801F058FC08B35848FC
:1015400001F092FBC4B25748008800F40040C0B9D3
:1015500054480088B0F5C87F14DA00214FF080406D
:1015600001F084FD4F48008818B90121880701F077
:10157000BDFD4C4801880088401C4A4A10804A48FA
:10158000445405E04748008840F40040454908803D
:1015900010BD10B588B004460121084601F0A8F836
:1015A0000121480401F0EDF83D4801F03FFA07221F
:1015B00002213E4800F089FE072203213B4800F04B
:1015C00084FE0C20059002208DF818008DF819007B
:1015D00000208DF81A0001208DF81B0005A9334862
:1015E00000F0E8FD01940020ADF80800ADF80A0015
:1015F000ADF80C00ADF810000C20ADF80E0001A9FC
:10160000274801F07AFA0121254801F0FEFA01226B
:1016100040F22551224801F0AEFB26208DF81C0037
:1016200002208DF81D0003208DF81E0001208DF88A
:101630001F0007A800F0CDFC42F2CF016320FFF7A6
:1016400099FB00201749088000214FF0804001F0ED
:101650004DFD08B010BD0FB438B505A80090144872
:10166000009A049904F0C4FC00200090104804F093
:1016700099F885B200240DE000BF4021084801F030
:101680009FFB0028F9D00A48015D054801F0E8FAFF
:10169000601C84B2AC42EFDB38BC5DF814FB000088
:1016A0000044004022000020A00B00200000024067
:1016B000100A002010B540F225516E4801F096FB4B
:1016C00008B36C4801F0D0FAC4B26B48008800F44B
:1016D0000040C0B968480088B0F5C87F14DA00211E
:1016E0004FF0804001F0C2FC6348008818B9012126
:1016F000880701F0FBFC604801880088401C5E4AB6
:1017000010805E48445405E05B48008840F4004087
:101710005949088010BD10B588B00446012108461B
:1017200000F0E6FF0121C80401F02BF8514801F058
:101730007DF908220021524800F0C7FD082201214E
:101740004F4800F0C2FD0320059002208DF81800DC
:101750008DF8190000208DF81A0001208DF81B006B
:1017600005A9474800F026FD01940020ADF80800C7
:10177000ADF80A00ADF80C00ADF810000420ADF88B
:101780000E0001A93B4801F0B8F90121394801F0E8
:101790003CFA012240F22551364801F0ECFA34209F
:1017A0008DF81C0002208DF81D0003208DF81E000E
:1017B00001208DF81F0007A800F00BFC42F2CF01BA
:1017C0006320FFF7D7FA00202B49088000214FF053
:1017D000804001F08BFC08B010BD0FB438B505A8EF
:1017E00000902848009A049904F002FC0020009020
:1017F000244803F0D7FF85B200240DE000BF40214C
:101800001C4801F0DDFA0028F9D01E48015D194896
:1018100001F026FA601C84B2AC42EFDB38BC5DF804
:1018200014FB70B501261448008800F40040F0B1A4
:1018300011480088C0F30E05002405E00F48005D44
:1018400011490855601C84B2AC42F7DB00200E49F8
:101850000855084603F0A6FF052803D90A48FFF7F4
:1018600026FE064600200549087003490880F0B2AC
:1018700070BD0000004C004024000020C00E00207D
:1018800000000240300D00205010002010B5102044
:1018900002F0BCF968B10A2000F0C6FA10212E4807
:1018A00000F0EAFC10B901202C490870102002F069
:1018B000B8F910BD10B5202002F0A8F980B10A20B7
:1018C00000F0B2FA2021244800F0D6FC28B902200A
:1018D00022490870002022490860202002F0A1F966
:1018E00010BD0EB5FEF7EAFD0121880300F05AFF96
:1018F0000421022001F061F80521022001F05DF8C9
:101900003020009000208DF8040008208DF805009C
:1019100001208DF80600684602F012F917208DF8B4
:10192000080001208DF8090002208DF80A0001202E
:101930008DF80B0002A800F04CFB0A208DF808007F
:1019400002208DF809008DF80A0001208DF80B00A7
:1019500002A800F03EFB0EBD00080240010000207E
:101960009C02404270B505460C46FEF784FED0202E
:10197000FEF72FFFFEF7C0FE18B1FEF79EFE012016
:1019800070BD2846FEF725FFFEF7B6FE2046FEF79F
:1019900020FFFEF7B1FE18B1FEF78FFE0120EFE742
:1019A000FEF78BFE0020EBE770B504460025BC2C4B
:1019B00001DB012510E0622C01DB02250CE02A2C62
:1019C00001DB032508E0142C01DB042504E00A2CCC
:1019D00001DB052500E0062529461A20FFF7C2FF96
:1019E00070BD70B50446B4F57A7F01DD4FF47A74AA
:1019F000042C00DA04244FF47A7090FBF4F0401EBB
:101A0000C5B229461920FFF7ADFF0546264604EB6F
:101A1000D671C1F34F00FFF7C7FF70BD70B5044624
:101A2000FEF729FED020FEF7D4FEFEF765FE204625
:101A3000FEF7CFFEFEF760FEFEF71DFED120FEF79B
:101A4000C8FEFEF759FE0020FEF7F0FE0546FEF741
:101A500034FE284670BD10B50446E006010E1C2079
:101A6000FFF780FF10BD10B50446E006010E1B20F5
:101A7000FFF778FF10BD10B5FEF7ACFD80216B209D
:101A8000FFF770FF642000F0CFF900216B20FFF713
:101A900069FF0320FFF7E7FF0020FFF7DCFF32209C
:101AA000FFF79FFF00213820FFF75CFF00216A202D
:101AB000FFF758FF00212320FFF754FF8021372034
:101AC000FFF750FF7520FFF7A9FF0446682C0BD1E4
:101AD00001216B20FFF746FF00216C20FFF742FF3A
:101AE0003220FFF77EFF01E0012010BD0020FCE75F
:101AF0002DE9F04106460F4614461D46FEF7BBFD94
:101B0000002141EA4601C8B2FEF763FEFEF7F4FD8C
:101B100020B1FEF7D2FD0120BDE8F0813846FEF786
:101B200058FEFEF7E9FDFEF7A6FD012101EB460197
:101B3000C8B2FEF74EFEFEF7DFFD0DE0012C04D12A
:101B40000020FEF773FE287003E00120FEF76EFE12
:101B50002870601EC4B26D1C002CEFD1FEF7ADFDE5
:101B60000020D9E710B52DED088B82B001AB022221
:101B700041216820FFF7BCFF9DF805009DF8041087
:101B800040EA012004B2204603F0CEFF41EC1B0BDB
:101B90009FED6C0B53EC102B03F057FF41EC1A0B2D
:101BA0009FED6A0B53EC102B03F036FE41EC190B42
:101BB00003F0CBFF08EE100A9FED660A28EE000A3C
:101BC000BDEEC00A10EE100A00B202B0BDEC088BE8
:101BD00010BD2DE9FC4104460D4616466B46062213
:101BE00043216820FFF784FF0746BFB99DF8010035
:101BF0009DF8001040EA012000B220809DF803000B
:101C00009DF8021040EA012000B228809DF80500EE
:101C10009DF8041040EA012000B230803846BDE84B
:101C2000FC812DE9FC4104460D4616466B46062212
:101C30003B216820FFF75CFF0746BFB99DF8010014
:101C40009DF8001040EA012000B220809DF80300BA
:101C50009DF8021040EA012000B228809DF805009E
:101C60009DF8041040EA012000B230803846BDE8FB
:101C7000FC812DE9F04105460E4617469846FEF7D1
:101C8000FAFC002141EA4501C8B2FEF7A2FDFEF7C9
:101C900033FD20B1FEF711FD0120BDE8F081304693
:101CA000FEF797FDFEF728FD00240CE018F804006D
:101CB000FEF78FFDFEF720FD18B1FEF7FEFC0120B8
:101CC000EBE7601CC4B2BC42F0DBFEF7F6FC002080
:101CD000E3E737B52DED028B002404AA03A902A87F
:101CE000FFF79FFFBDF8080010FB00F0BDF80C10D7
:101CF00011FB0100BDF8101011FB0100164990FB0B
:101D0000F1F000EE100AB8EEC00AB0EE408AB3EE71
:101D1000040AB4EEC08AF1EE10FA0CD201240120BC
:101D20000E49086041F2883000F07EF800200C492E
:101D3000C1F8980202E00020084908602046BDEC86
:101D4000028B3EBD0000000000407540A4703D0ABB
:101D5000D74342400000C84240420F009802404230
:101D60000000404210B504466FF0040000F07EF918
:101D7000E11704EB5171C1F3C701394A11701046E4
:101D8000007800EB4001C1EBC0104FF6FF7101EA93
:101D9000C0003449088010BD0146314A12784A43D8
:101DA0004FF0E0235A6100229A611A46126942F00C
:101DB00001021A6100BF4FF0E022106900F0010239
:101DC0001AB100F48032002AF5D04FF0E0221269F7
:101DD00022F001024FF0E0231A6100229A6170475D
:101DE0000146204A12884A434FF0E0235A610022FC
:101DF0009A611A46126942F001021A6100BF4FF05F
:101E0000E022106900F001021AB100F48032002AC9
:101E1000F5D04FF0E022126922F001024FF0E023EA
:101E20001A6100229A61704770B504464FF407703A
:101E300094FBF0F0C6B24FF4077094FBF0F100FB96
:101E4000114085B205E04FF40770FFF7C9FF701E1F
:101E5000C6B2002EF7D115B12846FFF7C1FF70BDFD
:101E6000260000202800002000BF704700BF484A1D
:101E7000128802F04002002AF9D0C2B2444B9A8084
:101E8000704710B588B004460121084600F030FCC8
:101E90000121102000F086FC072209213D4800F0B6
:101EA00014FA07220A213B4800F00FFA4FF4C060F1
:101EB000069002208DF81C008DF81D0000208DF882
:101EC0001E0001208DF81F0006A9324800F072F9AB
:101ED00002940020ADF80C00ADF80E00ADF8100033
:101EE000ADF814000C20ADF8120002A9284800F04B
:101EF00004FE0121264800F088FE4021244800F01D
:101F00006CFF012240F22551214800F034FF2520CA
:101F10008DF8040003208DF805008DF806000120DF
:101F20008DF8070001A800F054F808B010BD10B5F6
:101F300040F22551184800F059FF00B3164800F050
:101F400093FEC4B21548008800F40040B8B91348A5
:101F50000088C82814DA00214FF0804001F086F88C
:101F60000E48008818B90121880701F0BFF80B4816
:101F700001880088401C094A10800948445405E043
:101F80000648008840F400400449088010BD000065
:101F900000100140000002400048004030000020D6
:101FA000A81200200648804706480047FEE7FEE7E3
:101FB000FEE7FEE7FEE7FEE7FEE7FEE7FEE7FEE7F9
:101FC000490300088901000832490143324A11607F
:101FD000704770B5002100230F22C4781CB32E4C2B
:101FE000246804F4E064C4F5E064C4F30721C1F19B
:101FF0000404E3B20A4144789C40E1B2847814407E
:1020000021430C07210E254C05786155047804F016
:102010001F050124AC4005786D11AD0005F1E025E8
:10202000C5F8004109E0047804F01F050124AC4024
:102030001B4D0678761145F8264070BD194A0A40B6
:102040000243154B1B1F1A60704739B1124A121D0B
:1020500012680243104B1B1D1A6006E00E4A121D47
:10206000126882430C4B1B1D1A607047042808D16C
:102070004FF0E021096941F004014FF0E0221161C5
:1020800007E04FF0E021096921F004014FF0E02260
:10209000116170470000FA050CED00E000E400E07B
:1020A00080E100E080FFFF1F10B50446984884429D
:1020B00008D10121084600F086FB0021012000F034
:1020C00082FB76E09348844208D10121022000F08F
:1020D0007AFB0021022000F076FB6AE08E48844201
:1020E00008D10121042000F06EFB0021042000F043
:1020F0006AFB5EE08948844208D10121082000F093
:1021000062FB0021082000F05EFB52E0844884421C
:1021100008D10121102000F056FB0021102000F012
:1021200052FB46E07F48844208D10121202000F084
:102130004AFB0021202000F046FB3AE07A48844226
:1021400008D10121402000F03EFB0021402000F09A
:102150003AFB2EE07548844208D10121802000F02E
:1021600032FB0021802000F02EFB22E070488442E8
:1021700008D10121801500F026FB0021A01500F0F8
:1021800022FB16E06B48844208D10121401500F083
:102190001AFB0021601500F016FB0AE06648844235
:1021A00007D10121001500F00EFB0021201500F0E1
:1021B0000AFB10BDF0B50A4600210023002400BF31
:1021C0003DE0012505FA01F3156805EA03049C4288
:1021D00034D105684F000326BE40B543056015792C
:1021E0004E00B5400668354305601579012D02D0D3
:1021F0001579022D16D185684F000326BE40B543E0
:10220000856055794E00B5408668354385604568E0
:1022100001268E40B5434560456896798E40B6B23A
:1022200035434560C5684F000326BE40B543C560D1
:10223000D5794E00B540C6683543C560491C1029A4
:10224000BFD3F0BD4FF6FF710160002101714171F4
:102250008171C171704708B54FF480320092009AC5
:102260000A430092009AC261C161009AC261C269C8
:102270000092C269009208BD0246002013690B401B
:102280000BB1012000E0002070470146086980B2D0
:1022900070470246002053690B400BB1012000E05B
:1022A000002070470146486980B27047018370473B
:1022B000418370470AB1018300E041837047416167
:1022C000704742694A4042617047F0B500230024DC
:1022D0004D07ED0E02FA05F3CE1000F1200555F87A
:1022E00026504E07F70E0F26BE40B543CF1000F123
:1022F000200646F82750CE1000F1200555F826504C
:1023000045EA0304CE1000F1200545F82640F0BD53
:10231000000002400004024000080240000C02409D
:10232000001002400014024000180240001C02404D
:10233000002002400024024000280240F9480068C2
:1023400040F00100F74908600020F64908310860B4
:10235000F4480068F4490840F2490860F348091D50
:102360000860F348EF4984310860F0481038091DCF
:102370000860EC48006820F48020EA4908600020EA
:10238000E8490C310860E7498C310860704700214A
:10239000E44A921C117011460870704710B501464E
:1023A0000022002300204A11012A02D1DD4C2368BB
:1023B00008E0022A03D1DB4C7034236802E0D94CD8
:1023C0007434236801F01F02012494401C400CB1B6
:1023D000012000E0002010BD38B50020009000244E
:1023E000002500BF3120FFF7D9FF05460098401CAB
:1023F00000900098B0F5A04F01D0002DF2D0312010
:10240000FFF7CCFF08B1012400E00024204638BDCE
:1024100001460020C34A106820F0F80040EAC100DD
:1024200010607047C349086070470021BD4A703290
:1024300011701170012802D004280AD104E0012192
:10244000B84A7032117005E00521B64A7032117039
:1024500000E000BF00BF7047B7490860704770B523
:10246000049C41EA82150126C6EB530645EA06455F
:10247000054345EA0465AB4E361D356070BDAD4978
:1024800008667047820142EA0172A64B84331A60E3
:102490007047A8498866704710B5830143EA016315
:1024A00043EA02739F4C8834236010BDA14908673A
:1024B0007047A049C864704702460020994B083312
:1024C000186820F0EC6042EA01031843954B08338A
:1024D0001860704702460020924B0833186820F0BD
:1024E000784042EA010318438E4B08331860704766
:1024F000014600208B4A0832106820F00300084390
:102500001060704787480830006800F00C00704782
:1025100001460020834A0832106820F0F00008438A
:1025200010607047014600207E4A0832106820F48F
:10253000E05008431060704701460020794A083295
:10254000106820F4604040EAC10010607047F0B5A8
:10255000002100220024022500260223714F0837A3
:102560003F6807F00C0121B1042905D0082937D1B3
:1025700005E0724F076036E0714F076033E0694F46
:102580003F1D3F68C7F38056664F3F1D3F6807F009
:102590003F036EB16A4FB7FBF3F7DFF888C10CF168
:1025A000040CDCF800C0CCF3881C07FB0CF40CE036
:1025B000624FB7FBF3F7DFF86CC10CF1040CDCF8E9
:1025C00000C0CCF3881C07FB0CF4564F3F1D3F683E
:1025D000C7F301477F1C7D00B4FBF5F7076002E0FD
:1025E000564F076000BF00BF4E4F08373F6807F0E7
:1025F000F0010909534F7A5C0768D7404760494F9B
:1026000008373F6807F4E051890A4E4F7A5C476803
:10261000D7408760434F08373F6807F46041490B54
:10262000484F7A5C4768D740C760F0BD002100F48E
:102630004072B2F5407F0AD13A4A0832116821F45B
:10264000F811414A02401143364A08321160354AB6
:1026500070321268C0F30B031A43324B70331A60A6
:10266000704735494439086070473349403908603C
:10267000704736490860704701460020294A8C326D
:10268000106820F01F004A1E1043264A8C3210604A
:10269000704701460020234A8C32106820F4F8501D
:1026A0004A1E40EA02201F4A8C32106070470146E1
:1026B00000201C4A8C32106820F44010084310603F
:1026C000704701460020174A8C32106820F4400001
:1026D00008431060704701460020124A8C3210688F
:1026E00020F4403008431060704719490860704773
:1026F00039B10C4A3032126802430A4B30331A6047
:1027000006E0084A303212688243064B30331A60C2
:102710007047F9B1034A343212680243014B343333
:102720001A601CE000380240FFFFF6EA1030002477
:102730000030002000004742800E47420024F40091
:1027400000127A0032000020FFFCFF0F5C014742BC
:10275000E01147428F4A126882438E4B1A607047DD
:1027600039B18C4A121D126802438A4B1B1D1A6034
:1027700006E0884A121D12688243864B1B1D1A60B0
:10278000704739B1834A0C3212680243814B0C33D3
:102790001A6006E07F4A0C32126882437D4B0C338C
:1027A0001A60704739B17B4A103212680243794B84
:1027B00010331A6006E0774A103212688243754B74
:1027C00010331A60704739B1724A243A12680243D2
:1027D000704B243B1A6006E06E4A243A126882432A
:1027E0006C4B243B1A60704739B16A4A203A126830
:1027F0000243684B203B1A6006E0664A203A1268A2
:102800008243644B203B1A60704739B1614A1C3ADD
:10281000126802435F4B1C3B1A6006E05D4A1C3A9B
:10282000126882435B4B1C3B1A60704739B1594AAE
:10283000143A12680243574B143B1A6006E0554A9B
:10284000143A12688243534B143B1A60704739B1F3
:10285000504A103A126802434E4B103B1A6006E091
:102860004C4A103A126882434A4B103B1A60704738
:1028700039B1484A1C3212680243464B1C331A6075
:1028800006E0444A1C3212688243424B1C331A60F1
:10289000704739B13F4A2032126802433D4B203322
:1028A0001A6006E03B4A203212688243394B2033DB
:1028B0001A60704739B1374A243212680243354BE7
:1028C00024331A6006E0334A243212688243314BC3
:1028D00024331A60704739B12E4A2C3212680243F1
:1028E0002C4B2C331A6006E02A4A2C3212688243A1
:1028F000284B2C331A60704739B1264A303212689F
:102900000243244B30331A6006E0224A3032126808
:102910008243204B30331A607047012808D11D498B
:102920003C31096841F008011A4A3C32116007E065
:1029300018493C31096821F00801164A3C321160FF
:10294000704739B1134A273A12780243114B273B9B
:102950001A7006E00F4A273A127882430D4B273B44
:102960001A7070470B484030006840F08070094989
:1029700040310860704701460020064A283A126834
:102980000A400AB1012000E00020704701492639C1
:10299000087070473438024010B501218803FFF7F2
:1029A00056FF00214FF48040FFF751FF10BD1C4936
:1029B000086070471B490862704730B500228B07DA
:1029C0001C0F0F2303FA04F2154B08338C1053F835
:1029D00024309343124C08348D1044F8253023469C
:1029E0008C1053F824308C07240F00FA04F423438E
:1029F0000B4C08348D1044F8253030BD0949DC31CA
:102A00000860704708490860704700200449203179
:102A1000096801F4807109B1012000E000207047CD
:102A200000380140000027420004274210B5044648
:102A3000FA48844208D101211020FFF708FF002145
:102A40001020FFF704FF57E0F548844209D1012127
:102A50004804FFF7EBFE00214FF40030FFF7E6FEDD
:102A60004AE0F048844209D101218804FFF7DEFEE4
:102A700000214FF48020FFF7D9FE3DE0EA48844270
:102A800009D10121C804FFF7D1FE00214FF4002035
:102A9000FFF7CCFE30E0E548844209D1012108056A
:102AA000FFF7C4FE00214FF48010FFF7BFFE23E0C4
:102AB000DF48844208D101212020FFF7C8FE002111
:102AC0002020FFF7C4FE17E0DA48844209D1012133
:102AD0008807FFF7ABFE00214FF08040FFF7A6FE0E
:102AE0000AE0D548844207D101214005FFF79EFE48
:102AF00000216005FFF79AFE10BD2DE9FF4705464E
:102B00000E460024A14600BFA046B08900B100BF18
:102B10002C8A24F44054F08804432C82AC8941F27E
:102B20000C608443B08831890843718908430443A9
:102B3000AC81AC8A24F44074B0890443AC8268460A
:102B4000FFF705FDB548854202D0B948854202D15C
:102B5000DDF80C9001E0DDF80890A88900F4004051
:102B600040B109EBC90000EB091031684900B0FB26
:102B7000F1F707E009EBC90000EB091031688900A3
:102B8000B0FBF1F76420B7FBF0F0040120096421E9
:102B900001FB1078A88900F4004040B1322000EB1E
:102BA000C800B0FBF1F000F00700044308E0322059
:102BB00000EB08106421B0FBF1F000F00F000443BB
:102BC0002C81BDE8FF874FF4165101600021818000
:102BD000C18001810C21418100218181704710B5A4
:102BE00002460020108A20F470600B884C88234332
:102BF0008C882343CC8823431843108210BD0021C6
:102C0000018041808180C180704721B1828942F476
:102C10000052828104E082894DF6FF731A4082815E
:102C20007047028B02F47F420283028B0A430283C5
:102C3000704721B1828942F40042828103E0828997
:102C4000C2F30E028281704721B1828A42F400628F
:102C5000828204E0828A4FF2FF731A4082827047B8
:102C6000C1F308028280704701468888C0F30800DB
:102C70007047028A4FF6F0731A400282028A0A43B2
:102C80000282704721B1828942F00202828104E00F
:102C900082894FF6FD731A408281704782894FF214
:102CA000FF731A40828182890A4382817047028AB7
:102CB0004FF6DF731A400282028A0A43028270478B
:102CC00021B1028A42F48042028204E0028A4BF679
:102CD000FF731A4002827047818941F001018181AE
:102CE000704721B1828A42F00802828204E0828A1F
:102CF0004FF6F7731A4082827047028BD2B202837A
:102D0000028B42EA01220283704721B1828A42F09B
:102D10002002828204E0828A4FF6DF731A408282A8
:102D2000704721B1828A42F01002828204E0828AD6
:102D30004FF6EF731A4082827047828A4FF6FB7318
:102D40001A408282828A0A438282704721B1828A33
:102D500042F00202828204E0828A4FF6FD731A403A
:102D6000828270471AB1838A0B43838202E0838A8E
:102D70008B4383827047F0B503460024002600256C
:102D8000002040F66A17B94200D100BF1846C1F3CF
:102D9000421401F01F06012707FA06F5012C01D1A4
:102DA0000C3004E0022C01D1103000E014301AB1D4
:102DB00007682F43076002E00768AF430760F0BD74
:102DC00002460020B1F5007F00D100BF13880B4000
:102DD0000BB1012000E00020704701F40072B2F551
:102DE000007F00D100BFCA430280704770B5024621
:102DF000002400230025002040F66A16B14200D1CD
:102E000000BFC1F3421501F01F03012606FA03F3C8
:102E1000012D13D19689334017E0000000100140C6
:102E20000044004000480040004C0040005000407A
:102E30000014014000780040007C0040022D02D1C7
:102E4000168A334001E0968A33400C12012606FAB6
:102E500004F41688344013B10CB1012000E00020C6
:102E600070BD10B50022002340F66A14A14200D1C3
:102E700000BF0A1201249440A3B2DC43048010BDB9
:102E800010B50446FE48844208D101210846FFF7E8
:102E9000DEFC00210120FFF7DAFC9DE0B4F1804F59
:102EA00008D101210846FFF7C1FC00210120FFF7EE
:102EB000BDFC91E0F348844208D101210220FFF7D4
:102EC000B5FC00210220FFF7B1FC85E0EE4884420A
:102ED00008D101210420FFF7A9FC00210420FFF7FD
:102EE000A5FC79E0E948844208D101210820FFF7D8
:102EF0009DFC00210820FFF799FC6DE0E448844226
:102F000008D101211020FFF791FC00211020FFF7CC
:102F10008DFC61E0DF48844208D101212020FFF7C9
:102F200085FC00212020FFF781FC55E0DA4884422F
:102F300008D101210220FFF78AFC00210220FFF7BF
:102F400086FC49E0D548844209D101210804FFF7F5
:102F50007EFC00214FF48030FFF779FC3CE0D04844
:102F6000844209D101214804FFF771FC00214FF48C
:102F70000030FFF76CFC2FE0CA48844209D10121E0
:102F80008804FFF764FC00214FF48020FFF75FFC0A
:102F900022E0C548844208D101214020FFF746FCC9
:102FA00000214020FFF742FC16E0C048844208D1CF
:102FB00001218020FFF73AFC00218020FFF736FC3A
:102FC0000AE0BB48844207D101218015FFF72EFC9F
:102FD0000021A015FFF72AFC10BD00220288A84B93
:102FE00098420ED0AC4B98420BD0B0F1804F08D035
:102FF000A44B984205D0A44B984202D0A34B9842D0
:1030000004D14FF68F731A404B881A43A04B984255
:1030100007D0A04B984204D04FF6FF431A400B89CB
:103020001A4302804B68C3620B880385944B984215
:1030300002D0994B984201D18B7A03860123838277
:1030400070474FF0FF3141600021018001814180D4
:10305000817270470185828270470A46002101888B
:103060004FF68F73194011430180704741627047DA
:10307000C16270470146486A70470146088D704733
:1030800021B1028842F00202028004E002884FF679
:10309000FD731A400280704721B1028842F0040299
:1030A000028004E002884FF6FB731A4002807047EA
:1030B00021B1028842F08002028004E002884FF6CB
:1030C0007F731A400280704702884FF6F7731A40E8
:1030D000028002880A430280704702884FF6FF434D
:1030E0001A40028002880A430280704721B1028898
:1030F00042F00102028004E002884FF6FE731A409B
:103100000280704770B5002400220023058C4FF622
:10311000FE7635400584028C8388048B4FF68F75CC
:103120002C40B51E2C400D882C43751E2A408D89DD
:103130002A434D882A43524DA84202D0564DA842F8
:1031400013D14FF6F7752A40CD892A434FF6FB7508
:103150002A408D882A434FF6FF652B404FF6FF55D6
:103160002B400D8A2B434D8A2B43838004838D682B
:103170004563028470BD70B5002400220023058CD5
:103180004FF6EF7635400584028C8388048B48F631
:10319000FF752C404FF6FF452C400D884FF6FF760B
:1031A00006EA05252C434FF6DF752A408D8906EA8D
:1031B00005152A434D8806EA05152A43304DA842D5
:1031C00002D0354DA8421DD14FF67F752A40CD89DA
:1031D0004FF6FF7606EA05152A434FF6BF752A40DB
:1031E0008D8806EA05152A434FF6FF352B404FF22E
:1031F000FF752B400D8A06EA85052B434D8A06EAAA
:1032000085052B43838004838D688563028470BDAC
:1032100070B5002400220023058C4FF6FF66354070
:103220000584028C8388848B4FF68F752C404FF673
:10323000FC752C400D882C434FF6FF552A408D8994
:103240004FF6FF7606EA05252A434D8806EA05254E
:103250002A430B4DA84202D00F4DA84238D14FF25D
:10326000FF752A40CD894FF6FF7606EA05252A43E9
:103270004FF6FF352A408D8806EA05252A4319E0D6
:10328000000001400004004000080040000C004025
:1032900000100040001400400004014000400140C4
:1032A000004401400048014000180040001C00405C
:1032B000002000404EF6FF752B404DF6FF752B4069
:1032C0000D8A06EA05152B434D8A06EA05152B43A0
:1032D000838084838D68C563028470BD70B50022CD
:1032E00000230024058C4EF6FF7635400584038CC0
:1032F0008488828B48F6FF752A404FF6FF452A40A6
:103300000D884FF6FF7606EA05252A434DF6FF7530
:103310002B408D8906EA05352B434D8806EA053595
:103320002B43FE4DA84202D0FD4DA84208D14BF6DA
:10333000FF752C400D8A4FF6FF7606EA85152C4363
:10334000848082838D680564038470BD00210180C0
:103350004180818081608181C18101824182704789
:1033600070B50346002000241846183001258D4012
:10337000ACB21D8CA5431D8409B108290AD100EB0C
:10338000610005684FF68F76354005600568154386
:1033900005600FE00D1FC5F34E052844056848F68B
:1033A000FF763540056005684FF6FF7606EA02268F
:1033B0003543056070BD4163704781637047C163E9
:1033C0007047016470470A460021018B4FF68F73E6
:1033D00019401143018370470A460021018B48F6CA
:1033E000FF7319404FF6FF7303EA02231943018369
:1033F00070470A460021818B4FF68F7319401143A5
:10340000818370470A460021818B48F6FF7319407B
:103410004FF6FF7303EA02231943818370470A467C
:103420000021018B4FF6F773194011430183704758
:103430000A460021018B4FF2FF7319404FF6FF73CC
:1034400003EA02231943018370470A460021818B56
:103450004FF6F77319401143818370470A460021E4
:10346000818B4FF2FF7319404FF6FF7303EA02237B
:103470001943818370470A460021018B4FF6FB7385
:1034800019401143018370470A460021018B4FF612
:10349000FF3319404FF6FF7303EA022319430183F8
:1034A00070470A460021818B4FF6FB731940114388
:1034B000818370470A460021818B4FF6FF33194004
:1034C0004FF6FF7303EA02231943818370470A46CC
:1034D0000021018B4FF67F73194011430183704720
:1034E0000A460021018BC1F30E014FF6FF7303EA78
:1034F00002231943018370470A460021818B4FF64E
:103500007F7319401143818370470A460021818BE4
:10351000C1F30E014FF6FF7303EA022319438183BF
:1035200070470A460021018C4FF6FD731940114384
:10353000018470470A460021018C4FF6F773194049
:103540001143018470470A460021018C4FF6DF7356
:1035500019404FF6FF7303EA0213194301847047C1
:103560000A460021018C4FF67F7319404FF6FF7316
:1035700003EA02131943018470470A460021018CB3
:103580004FF6FF5319404FF6FF7303EA0223194326
:10359000018470470A460021018C4FF2FF731940E5
:1035A0004FF6FF7303EA02231943018470470A466A
:1035B0000021018C4DF6FF7319404FF6FF7303EAAB
:1035C000023319430184704730B5002301248C4035
:1035D000A3B2048C9C430484048C02FA01F5ADB2BE
:1035E0002C43048430BD30B5002304248C40A3B2A6
:1035F000048C9C430484048C02FA01F5ADB22C4384
:10360000048430BD828B4FF2FF331A408283828B59
:103610004FF6FF7303EA01231A4382837047F0B524
:103620000C461546002100220026078C4EF6FF7C32
:1036300007EA0C070784818B028C4FF6FF7707EAB5
:10364000043640F6FF4739404FF6FF7707EA052773
:1036500039434FF6FF7707EA0337394345F6FF77DB
:103660003A4046F480573A4381830284F0BD828B0E
:103670004FF6F3731A408283828B0A43828370472A
:10368000F0B50C461546002100220026078C4FF6A7
:10369000FF6C07EA0C070784818B028C4FF6FF77DB
:1036A00007EA04264FF60C7739404FF6FF7707EA12
:1036B00003172F4339434FF2FF573A4046F48077C0
:1036C0003A4381830284F0BD028B4FF2FF331A40EC
:1036D0000283028B4FF6FF7303EA01231A4302832E
:1036E0007047F0B50C461546002100220026078CD5
:1036F0004FF6EF7C07EA0C070784018B028C4FF62C
:10370000FF7707EA041640F6FF4739404FF6FF7788
:1037100007EA033739434FF6FF7703E00000014023
:103720000004014007EA052739434FF65F773A4026
:1037300046F010073A4301830284F0BD028B4FF636
:10374000F3731A400283028B0A4302837047F0B579
:103750000C46154600210022068C4FF6FE773E40AF
:103760000684018B028C4FF60C7631407E1C06EAF3
:1037700003162E4331434FF6F576324044F00106EE
:10378000324301830284F0BD70B505460C462088A3
:1037900050B92389A28861882846FFF7D8FFE188BD
:1037A0002846FFF7CBFF25E0208804280AD123898B
:1037B000A28861882846FFF794FFE1882846FFF732
:1037C00083FF17E0208808280AD12389A28861880E
:1037D0002846FFF755FFE1882846FFF748FF09E034
:1037E0002389A28861882846FFF719FFE1882846C7
:1037F000FFF708FF70BD0021018041800121818019
:103800000021C180018170472DE9F04105460C4639
:1038100000260127608808B9022600E00026A0885B
:10382000012801D1022700E001272088A0B92389BF
:10383000A28861882846FFF78AFFE1882846FFF7BB
:103840007DFF23893A4631462846FFF74AFFE18843
:103850002846FFF739FF13E02389A28861882846AC
:10386000FFF73FFFE1882846FFF72EFF23893A46FE
:1038700031462846FFF76BFFE1882846FFF75EFFD9
:10388000BDE8F0810146486B70470146886B704780
:103890000146C86B70470146086C70470A884B8820
:1038A0001A438B881A43CB881A430B891A434B89D6
:1038B0001A438B891A43A0F84420704700210180E5
:1038C00041808180C180018141818181704731B116
:1038D000B0F8442042F40042A0F8442005E0B0F8DB
:1038E0004420C2F30E02A0F84420704721B1828820
:1038F00042F00402828004E082884FF6FB731A4093
:103900008280704721B1828842F00102828004E007
:1039100082884FF6FE731A40828070471AB18389FD
:103920000B43838102E083898B43838170478182CB
:10393000704702460020138A0B400BB1012000E0C3
:1039400000207047CA430282704730B5024600200B
:1039500000230024158A05EA0103958905EA01047C
:1039600013B10CB1012000E0002030BDCA43028237
:10397000704741EA0203A0F8483070471AB18389C2
:103980000B43838102E083898B438381704721B19C
:10399000828842F00802828004E082884FF6F77342
:1039A0001A408280704701894FF6F87211400181F8
:1039B00070470A46002101894FF68F731940114361
:1039C0000181704730B504460D4629462046FFF771
:1039D000F0FF208940F00700208130BD2DE9F04143
:1039E00004460D4616461F46602D06D13B46012271
:1039F00031462046FFF775FE05E03B460122314681
:103A00002046FFF7A4FE29462046FFF7D2FF208973
:103A100040F007002081BDE8F08130B50C46002160
:103A20000189C9B24FF6FF7505EA03251543254301
:103A30002943018130BD2DE9F04105460E46174668
:103A40009846002443463A4631462846FFF7E5FFAC
:103A50002C894FF6F870044044F007044FF68F703D
:103A6000044044F070042C81BDE8F081F0B50446B8
:103A70000D4616461F463B46324629462046FFF76E
:103A8000CCFF208940F480402081F0BD82884FF631
:103A90008F731A40828082880A438280704702892D
:103AA0004FF6F8731A40028102890A430281704777
:103AB00002894FF67F731A40028102890A4302810C
:103AC0007047F0B50C4615461E4600210022002323
:103AD0000189028B038C4FF6F877394021434FF66A
:103AE000FC473A4040F201173A434FF6DD773B403E
:103AF0004FF6FF7707EA06172F433B430181028306
:103B00000384F0BD21B1828842F08002828004E00B
:103B100082884FF67F731A4082807047A0F8501059
:103B200070470000002041490860091D0860091D18
:103B30000860091D08603E483C4914310860704720
:103B400000213A498279002A3AD00A46126803686D
:103B50009A430B461A600A1D126803689A430B1DAC
:103B60001A60027911440A6803681A430A602F4AEE
:103B70000832126803689A432C4B08331A601A1DE6
:103B8000126803689A43294B0C331A604279102A51
:103B90000ED11A1F126803681A43244B08331A60A7
:103BA0001A1D126803681A43204B0C331A600DE08B
:103BB0001E49427911440A6803681A430A6005E005
:103BC000027911440A6803689A430A607047002129
:103BD000016001710C21417100218171704713490D
:103BE000103109680143114A1032116070470146D3
:103BF00000200E4A143212680A400AB1012000E087
:103C000000207047094914310860704701460020C0
:103C1000064A143212680A400AB1012000E000206E
:103C2000704702491431086070470000003C0140B1
:103C3000FFFF7F0010B58CB004461E230BAA03A91A
:103C4000204600F0A9FE0090009810B101200CB0B1
:103C500010BD9DF82C00044400200B900EE040485D
:103C60009DF82C2050F8221003A800F0FDFD00B9AB
:103C700008E09DF82C00401CC0B20B909DF82C0071
:103C80000728ECD300BF9DF82C00072863D2DFE89B
:103C900000F004053C5E6564630000BF31A002F0E3
:103CA00083F931A002F080F93FA002F07DF94EA027
:103CB00002F07AF95CA002F077F96BA002F074F9D7
:103CC00079A002F071F986A002F06EF98BA002F0E3
:103CD0006BF990A002F068F994A002F065F999A040
:103CE00002F062F99EA002F05FF9A4A002F05CF974
:103CF000B0A002F059F9BDA002F056F9C8A002F038
:103D000053F9D4A002F050F99AE216A002F04CF94F
:103D1000E0A002F049F900200B900EE0ED480068A9
:103D20009DF82C2000EBC2004168EBA002F03CF9AA
:103D30009DF82C00401CC0B20B90E648007D9DF819
:103D40002C108842EADC07A002F02EF978E205A0E8
:103D500002F02AF9C4E171E245E219E2ECE1000067
:103D6000440000200D0A00002D2D2D2D2D2D2D2D70
:103D70002D2D2D2D2D2D2D2D2D2D2D2D2D2D2D2D73
:103D800055534D4152542056332E312D2D2D2D2D6E
:103D90002D2D2D2D2D2D2D2D2D2D2D2D2D2D2D2D53
:103DA0002D2D2D200D0A00002020202055534D419F
:103DB0005254CAC7D3C9414C49454E54454BBFAA7A
:103DC000B7A2B5C4D2BBB8F6C1E9C7C9B5C4B4AED1
:103DD000BFDAB5F7CAD4BBA5BDBBD7E9BCFE2CCDB5
:103DE000A8B9FD200D0A0000CBFC2CC4E3BFC9D24A
:103DF000D4CDA8B9FDB4AEBFDAD6FACAD6B5F7D3DA
:103E0000C3B3CCD0F2C0EFC3E6B5C4C8CEBACEBA05
:103E1000AFCAFD2CB2A2D6B4D0D02ED2F2B4CB2CE5
:103E2000C4E3BFC90D0A0000D2D4CBE6D2E2B8FC8D
:103E3000B8C4BAAFCAFDB5C4CAE4C8EBB2CECAFDB5
:103E400028D6A7B3D6CAFDD7D62831302F3136BDF4
:103E5000F8D6C629A1A2D7D6B7FBB4AEA1A2BAAFF5
:103E6000CAFDC8EB0D0A0000BFDAB5D8D6B7B5C891
:103E7000D7F7CEAAB2CECAFD292CB5A5B8F6BAAFEF
:103E8000CAFDD7EEB6E0D6A7B3D63130B8F6CAE44D
:103E9000C8EBB2CECAFD2CB2A2D6A7B3D6BAAFCA6F
:103EA000FDB7B5200D0A0000BBD8D6B5CFD4CABE29
:103EB0002ED0C2D4F6B2CECAFDCFD4CABEBDF8D67B
:103EC000C6C9E8D6C3B9A6C4DC2CD0C2D4F6BDF8A6
:103ED000D6C6D7AABBBBB9A6C4DC2E0D0A0000000B
:103EE000BCBCCAF5D6A7B3D63A7777772E6F706584
:103EF0006E6564762E636F6D0D0A000055534D415B
:103F00005254D3D037B8F6CFB5CDB3C3FCC1EE3AD7
:103F10000D0A00003F3A202020202020BBF1C8A13C
:103F2000B0EFD6FAD0C5CFA20D0A000068656C705C
:103F30003A202020BBF1C8A1B0EFD6FAD0C5CFA25D
:103F40000D0A00006C6973743A202020BFC9D3C3E6
:103F5000B5C4BAAFCAFDC1D0B1ED0D0A0A00000068
:103F600069643A2020202020BFC9D3C3BAAFCAFD5C
:103F7000B5C44944C1D0B1ED0D0A0A006865783A6C
:103F800020202020B2CECAFD3136BDF8D6C6CFD40F
:103F9000CABE2CBAF3B8FABFD5B8F12BCAFDD7D632
:103FA000BCB4D6B4D0D0BDF8D6C6D7AABBBB0D0A18
:103FB0000A0000006465633A20202020B2CECAFDCA
:103FC0003130BDF8D6C6CFD4CABE2CBAF3B8FABFCA
:103FD000D5B8F12BCAFDD7D6BCB4D6B4D0D0BDF875
:103FE000D6C6D7AABBBB0D0A0A00000072756E7454
:103FF000696D653A312CBFAAC6F4BAAFCAFDD4CBFD
:10400000D0D0BCC6CAB13B302CB9D8B1D5BAAFCA32
:10401000FDD4CBD0D0BCC6CAB13B0D0A0A0000000B
:10402000C7EBB0B4D5D5B3CCD0F2B1E0D0B4B8F1D1
:10403000CABDCAE4C8EBBAAFCAFDC3FBBCB0B2CEBE
:10404000CAFDB2A2D2D4BBD8B3B5BCFCBDE1CAF89C
:104050002E0D0A002D2D2D2D2D2D2D2D2D2D2D2DFF
:104060002D2D2D2D2D2D2D2D2D2D2D2D2D2D414C4D
:1040700049454E54454B2D2D2D2D2D2D2D2D2D2DBE
:104080002D2D2D2D2D2D2D2D2D2D2D2D2D2D2D206D
:104090000D0A00002D2D2D2D2D2D2D2D2D2D2D2DED
:1040A0002D2D2D2D2D2D2D2D2D2D2D2D2DBAAFCA94
:1040B000FDC7E5B5A52D2D2D2D2D2D2D2D2D2D2D0E
:1040C0002D2D2D2D2D2D2D2D2D2D2D2D2D2D2D2D20
:1040D000200D0A007800002025730D0A0000000062
:1040E000EEA001F061FF00200B901AE0FB49096887
:1040F0009DF82C2001EBC20101AB02AA486803A97C
:1041000000F070FCF54800689DF82C1050F8312044
:1041100003A9F3A001F048FF9DF82C00401CC0B299
:104120000B90EE48007D9DF82C108842DEDCAFF24B
:10413000CC3001F039FF83E0AFF2D83001F034FF2A
:104140000BAA03A9204600F029FD9DF82C00C8B950
:10415000694603A800F0BBFB0B909DF82C0020B92A
:10416000E4A0009901F020FF0EE09DF82C00042847
:1041700001D002206BE5E2A001F016FF0120D74933
:10418000C87501E0022062E5DCA001F00DFF57E0F8
:10419000DAA001F009FF0BAA03A9204600F0FEFCFB
:1041A0009DF82C00C8B9694603A800F090FB0B905D
:1041B0009DF82C0020B9D7A0009901F0F5FE0EE083
:1041C0009DF82C00042801D0022040E5D4A001F085
:1041D000EBFE0020C149C87501E0022037E5C7A009
:1041E00001F0E2FE2CE0C5A001F0DEFE0BAA03A95F
:1041F000204600F0D3FC9DF82C00C8B9694603A8FE
:1042000000F065FB0B909DF82C0078B9B34900983D
:1042100081F8EC00084690F8EC0018B1C5A001F058
:10422000C3FE07E0CAA001F0BFFE03E002200EE5D6
:1042300002200CE5B1A001F0B7FE01E0012006E587
:1042400000BF002003E510B50121C848FFF77AFB45
:104250004FF6FF71C548FEF70BFF0021C348FEF77C
:1042600005FF00209D49C1F8F00010BD10B50121E7
:10427000BE48FFF75EFB012808D19848D0F8F0004F
:104280004FF6FF7108449549C1F8F000B748FEF7B2
:10429000F1FE9249D1F8F01008449049C1F8F000BD
:1042A0000846D0F8F00010BD10B50121AF48FFF767
:1042B0004CFB01280AD18949086980470021AB4895
:1042C000FEF7D4FE6421A948FEF7D2FE0121A748DB
:1042D000FFF74CFB10BD7FB504460D4601210420BD
:1042E000FEF74FFAADF800500020ADF8020001943F
:1042F000ADF8080069469D48FEF76FFE01221146A1
:104300009A48FFF70BFB01219848FEF7EFFE1E20AD
:104310008DF80C0003208DF80D008DF80E000120A3
:104320008DF80F0003A8FDF754FE7FBD10B50446BD
:1043300004EBC40000EB04100122C2EB800081B248
:104340004FF47A70FFF7C7FF01206449C87510BDAC
:1043500030B595B0054613AB12AA09A9284600F05E
:1043600041FB044614B1204615B030BD0020149026
:1043700026E05A4909689DF8502001EBC20113ABB1
:1043800011AA486801A900F02DFB04460CB1204693
:10439000EAE709A901A800F067FA60B99DF84400AE
:1043A0009DF84810884201DD0220DDE79DF85000AD
:1043B0004A4988750AE09DF85000401CC0B214902C
:1043C0004648007D9DF850108842D2DC00BF43482B
:1043D000007D9DF85010884201D10420C4E714A943
:1043E000284600F04CFC04460CB12046BCE79DF882
:1043F00050003A4948750020B6E72DE9F0419AB0DF
:104400003648847D007DA04202DC1AB0BDE8F08110
:104410003249096801EBC40106AB07AA486808A93C
:1044200000F0E0FA08A952A001F0BEFD0026B9E0B4
:104430002A48008B0121B1400840D8B122214EA06A
:1044400001F0B2FD304600F00DFC2449243147183C
:1044500039464AA001F0A8FD222147A001F0A4FDA1
:10446000304600F0FFFB1D492431084410A941F8F3
:1044700026008DE0304600F0F5FB1849243108583D
:1044800010A941F826001548C07D30B910A850F891
:1044900026103BA001F088FD7AE073E02D2D2D2D34
:1044A0002D2D2D2D2D2D2D2D2D2D2D2D2D2D2D2D3C
:1044B0002D2D2D2D2DBAAFCAFD204944202D2D2D97
:1044C0002D2D2D2D2D2D2D2D2D2D2D2D2D2D2D2D1C
:1044D0002D2D2D2D2D2D2D2D200D0A0078000020A5
:1044E00025732069642069733A0D0A3058253038E5
:1044F000580D0A004845583A305825580D0A000012
:104500003136BDF8D6C6B2CECAFDCFD4CABE210D53
:104510000A0000004445433A256C750D0A0000006E
:104520003130BDF8D6C6B2CECAFDCFD4CABE210D39
:104530000A00000052756E2054696D652043616C5D
:1045400063756C6174696F6E204F4E0D0A00000038
:1045500052756E2054696D652043616C63756C61A2
:1045600074696F6E204F46460D0A00000008004037
:104570000D0A257328000000256300002573000044
:10458000256C750010A850F8261095A001F00CFDC0
:104590009DF81C00401EB04202D093A001F004FD23
:1045A000701CC6B29DF81C008642FFF641AF8FA07A
:1045B00001F0FAFCFFF747FE8D48407D0B280DD235
:1045C000DFE800F0060D151E27323F4E5F728700B0
:1045D0008749096851F834008047054690E0844ACD
:1045E000126852F8341010988847054688E0804BCE
:1045F0001B6853F83420DDE91001904705467FE041
:104600007B4F3F6857F8343010A807C898470546D5
:1046100076E0DFF8DCC1DCF800C05CF8347010A88C
:104620000FC8B84705466BE01498DFF8C4C1009086
:10463000DCF800C05CF8347010A80FC8B847054615
:104640005EE0DDE91401DFF8A8C1CDE90001DCF886
:1046500000C05CF8347010A80FC8B84705464FE09A
:10466000DDE914121698DFF888C1CDE90012029036
:10467000DCF800C05CF8347010A80FC8B8470546D5
:104680003EE0DDE91423DDE91610DFF864C1CDE971
:104690000023CDE90210DCF800C05CF8347010A8EB
:1046A0000FC8B84705462BE0DDE91523DDE91710F3
:1046B000CDE90123CDE903101498DFF834C100904F
:1046C000DCF800C05CF8347010A80FC8B847054685
:1046D00016E0DDE91623DDE91810CDE90223CDE966
:1046E0000410DDE91401DFF808C1CDE90001DCF8B0
:1046F00000C05CF8347010A80FC8B847054600BF6A
:1047000000BFFFF7B3FD9DF8180001280CD1384811
:10471000C07D20B9294637A001F046FC07E02946B4
:1047200036A001F041FC02E033A001F03DFC30482E
:1047300090F8EC0088B12E48D0F8F0000A21B0FBC8
:10474000F1F201FB12072A48D0F8F000B0FBF1F8B3
:104750003A4641462CA001F027FC00BF55E670B553
:104760003148008800F40040002833D02E480578F6
:1047700000202E4948551E4881682C488847044629
:104780001CB91B49C868804721E02848FFF752FA46
:104790000546012D00D02C46CCB1012C06D0022CB0
:1047A00008D0032C0AD0042C10D10BE020A001F07B
:1047B000FBFB0BE021A001F0F7FB07E022A001F0DA
:1047C000F3FB03E023A001F0EFFB00BF00BF0020DC
:1047D0001549088070BD0146086870470160704740
:1047E00030582558000000002C000000290000006F
:1047F000780000203D256C753B0D0A003D305825A2
:10480000583B0D0A0000000046756E6374696F6EB8
:104810002052756E2054696D653A25642E253164E9
:104820006D730D0A0000000030000020E011002030
:10483000BAAFCAFDB4EDCEF3210D0A00B2CECAFD67
:10484000B4EDCEF3210D0A00B2CECAFDCCABB6E07A
:10485000210D0A00CEB4D5D2B5BDC6A5C5E4B5C4F8
:10486000BAAFCAFD210D0A0002460AE010780B78A3
:10487000984201D001207047107800B902E0521C24
:10488000491CF3E700BF0020F5E706E002780A7054
:10489000027802B902E0401C491CF7E700BF7047EC
:1048A0000146002005E00A7802B903E0421CD0B2BC
:1048B000491CF8E700BF704710B50246012000E030
:1048C00050430B00A1F10104E1B2F9D110BD2DE973
:1048D000F04307460E4600254FF00A083C460020EC
:1048E00030601FE02078392802DC207830280ADA8E
:1048F0002078462802DC2078412804DA20785828DD
:1049000009D1012D07D12078412801DB4FF0100893
:10491000681CC5B205E0207800B904E00120BDE8BC
:10492000F083641CDEE700BF3C46B8F1100F0FD1E6
:10493000032D01DA0220F2E72078302806D16078D2
:10494000582803D1A41CA81EC5B204E00320E6E742
:104950000DB90420E3E71BE00DB1681EC5B2207855
:10496000392806DC2078302803DB2078A0F13009D4
:1049700002E02078A0F1370929464046FFF79CFF66
:10498000316809FB00103060641C207800B900E039
:10499000E2E700BF0020C2E710B504460020107017
:1049A0000BE020780870641C491C1078401C1070C3
:1049B0001078984201DB012010BD2078202802D019
:1049C00020780028EDD10020087000BFF4E70146F0
:1049D000491C00E0491C0878202801D10029F9D1A0
:1049E000087870472DE9FF4F85B08046894600273B
:1049F000002004900390012002904FF0000B00254E
:104A000044461DE02078202816D005F07F000528B8
:104A100012DA0DB945F0800505F07F00042803D1B6
:104A200020782A2800D00EE0207805F07F010DF8CC
:104A30000100681CC5B202E0852D00D103E0641CB2
:104A400020780028DED100BF8DB1002005F07F0165
:104A50000DF80100CBA16846FFF706FF18B9002149
:104A60000898017002E001210898017000254FF0BC
:104A7000000A444614E0641C0AF1010000F0FF0A39
:104A80002078202802D020782A2809D12046FFF754
:104A90009EFF0646282E03D02A2E01D0CDF810A066
:104AA0002078282802D020780028E4D144460498B1
:104AB00010B10498401C04444FF0000A002654E052
:104AC000207810B94FF0010A50E02078282803D14F
:104AD00016B9781CC7B213E02078292808D13EB94E
:104AE00017B1781EC7B201E04FF0010A47B93DE0A7
:104AF0002078222804D10EB9012000E000200646CB
:104B000047B9207820282FD0207889F8000009F1B3
:104B1000010929E020782C2804D101200290681C8A
:104B2000C5B214E02078202811D0207828280ED093
:104B30004DB9BBF1050F06DA20780DF80B000BF12B
:104B4000010000F0FF0B0298401CC0B20290012F40
:104B50000AD10298022807D10298401CC0B20290E4
:104B60000398401CC0B20390641CA9E700BF0398DF
:104B7000012809D100200DF80B0082A16846FFF73B
:104B800073FE08B90020039007990398087000206D
:104B900089F80000504609B0BDE8F08FF0B5034633
:104BA0001546002000220026002455E01F782C2FF7
:104BB00001D104B901221F78292F01D01F780FB924
:104BC00004B94AE0002E34D11F78302F02DB1F7861
:104BD000392F11DD1F78612F02DB1F78662F0BDD67
:104BE0001F78412F02DB1F78462F05DD1F78582FD5
:104BF00002D01F78782F0CD102B12EE01F78612FE0
:104C000003DB1F78203F0F7001E01F780F70491CF5
:104C10001FE01F78222F04D102B11EE001260124DB
:104C200017E01F78202F14D01F782C2F11D0FF26CB
:104C300013E01F78222F00D1002402B10DE044B10F
:104C40001F785C2F02D15B1C471CF8B21F780F70D5
:104C5000491C471CF8B25B1CA8E700BF00270F7077
:104C60002E70F0BD02460020002105E0474B5B5C42
:104C70000344D8B24B1CD9B29142F7DB70472DE9FF
:104C8000F043B5B005460F460024002604E000219D
:104C90003E488155701CC6B20A2EF8DB06E06D1C3A
:104CA000287818B9012035B0BDE8F0832878282885
:104CB000F5D16D1C61E034AA69462846FFF76EFF06
:104CC000064635449DF8D00020B1012827D0FF28A2
:104CD0004CD149E09DF8000000B333A96846FFF7C6
:104CE000F6FD06460EB10220DDE72046FFF7BAFFCB
:104CF00026490A31339A0A50A1F12400008B012180
:104D0000A140884321491A39088304211F480155CD
:104D1000601CC4B20A2C01DD0320C4E726E068460B
:104D2000FFF7BEFD401C00F0FF082046FFF79AFF8A
:104D300016490A3100EB010949466846FFF7A5FD0F
:104D400012481A38018B0120A040014388B20F4954
:104D50001A3908830D4800F80480601CC4B20A2C7C
:104D600001DD03209FE701E002209CE700BF2878D7
:104D7000292801D0287800B900E09CE700BF3C70EA
:104D8000002090E7766F6964000000009200002028
:104D9000FE49098801F4004149B10021FB4A12880B
:104DA000C2F30E02FA4B995408B1F84A11807047C9
:104DB00070B504460025F548008800F4004058B15D
:104DC0000020F2490988C1F30E01F14A50542146EE
:104DD000104600F0C9FC0546284670BD2DE9F0419B
:104DE00005460E46144600270020E8490880FF2D9E
:104DF0000AD800BFE748008800F040000028F9D03A
:104E0000E449091D0D8003E02946E3A0FCF77AF888
:104E100040F24C40844206D10B20E149087042F236
:104E20000F70FBF70FFF46B33CB31FE0DD4800787F
:104E300060B10020FBF75BFB07462021DA48FDF755
:104E40001BFAB84202D10220BDE8F0810A20FCF72B
:104E5000EBFFCE48008800F4004038B13046FFF741
:104E6000A7FF00B106E00020C8490880601E80B29C
:104E70000400DBD100BF04B901273846E4E72DE97F
:104E8000F04105460C4601272DB324B31CE0002059
:104E9000FBF72DFB06462021C348FDF7EDF9B04294
:104EA00002D10220BDE8F0810A20FCF7BDFFB7481F
:104EB000008800F4004038B12846FFF779FF00B1C0
:104EC00006E00020B1490880601E80B20400DED1F7
:104ED00000BF04B900273846E4E70146302905DB66
:104EE000392903DCA1F13000C0B27047412905DB4C
:104EF000462903DCA1F13700C0B2F6E7612905DBE2
:104F0000662903DCA1F15700C0B2EEE70020ECE710
:104F10000146092903DC01F13000C0B270470A29BB
:104F200005DB0F2903DC01F13700C0B2F6E73020C2
:104F3000F4E7704770477047024600207047002032
:104F400070472DE9F04106460F46002525E0012473
:104F50001FE004EB4402954B03EB820105EB450295
:104F6000934B03EB820000F024FC80B9002004EB9B
:104F700044018E4A02F8210022468EA1404601F0EB
:104F800023F84FF496728FA14046FFF727FF601C6D
:104F9000C4B2BC42DDDD681CC5B2B542D7DBBDE89A
:104FA000F0812DE9F04FADF51B7D4FF00009002792
:104FB0000026B246B346002002900190C82001F0BE
:104FC000B3FC804649E0C8227FA181A0FFF706FF1D
:104FD000002842D184A16E4800F0C6FB0546E81EB9
:104FE00081A100F0C1FB04462F212170E0782C281C
:104FF00016D1A1786078303800EB800001EB4000DA
:1050000030387A4908700020E070A11E022203A8FF
:1050100000F0BCFB0222611C04A800F0B7FB0BE00F
:1050200000202071A11E022203A800F0AFFB032282
:10503000611C04A800F0AAFB04A800F0E0FB6B4987
:10504000087003A800F0DBFB6949087000204F4995
:10505000088009F1010000F0FF09B9F1000FB2D09A
:105060008BE000BFC82257A162A0FFF7B7FE00285F
:10507000F8D1721C62A1404600F0A6FFC82263A1CD
:105080004046FFF7ABFE00286ED157A1404800F024
:105090006BFB05465FA1A81C00F066FB04460020E0
:1050A000207007EB470105AA02EB8100A91C00F064
:1050B0008EFB59A1601C00F057FB054657A12846FE
:1050C00000F052FB04460020207055A1601C00F047
:1050D0004BFB0546022253A1A81C00F081FBF0B94E
:1050E00007EB470205AB03EB82014F4A127802EB54
:1050F00042022F4B03EB820000F069FB721C2DA1D2
:10510000404600F061FF4FF496722EA14046FFF733
:1051100065FE45480078401C434908701DE00222A6
:1051200042A1A81C00F05CFBB8B907EB470205AB35
:1051300003EB8201721C02EB42021C4B03EB820068
:1051400000F045FB4FF47A70FCF76EFE781CC7B296
:1051500037480078401C36490870414635A0FBF7B7
:10516000D1FE701CC6B208E037A0FBF7CBFE4FF4AF
:10517000FA70FCF759FE701CC6B21D480078B042A8
:105180003FF76FAF0020014908806DE0200000204C
:10519000800800200048004025730D0A0000000030
:1051A0006C0100206D01002000080240F001002089
:1051B0009304002041542B434D47443D25642C303B
:1051C000000000004F4B00002B43504D533A0000AD
:1051D00041542B43504D533D22534D222C22534DCD
:1051E000222C22534D0000002C000000070000205C
:1051F0000000002041542B434D47463D3100000044
:1052000041542B434D47523D256400002B434D47ED
:10521000523A0000220000002F0000002B00000086
:105220000D0000006E6F0000060000206F6B000094
:105230000500002041542B435454533D322C222569
:1052400073220D0A0000000041542B435454533D77
:10525000322C22CEDEB6CCD0C5C4DAC8DDC7EBBC5A
:10526000ECB2E9220D0A0000CA48007828B1CA4809
:105270000178C8480078FFF764FE404601F02CFB37
:105280000DF51B7DBDE8F08F70B5012500264FF4AC
:10529000967001F049FB044600BFC822AFF2DC0162
:1052A000BEA0FFF79BFD0028F7D100BF4FF4967218
:1052B000AFF2F001AFF2C400FFF790FD0028F5D186
:1052C000BAA1204600F080FE4FF4C872BDA120466E
:1052D000FFF784FD70B9BC4AA2F10F01BBA0FBF738
:1052E00011FE4FF47A72C0A11A20FFF777FD08B9BA
:1052F000681CC5B20020BE490880204601F0ECFAC7
:1053000070BD704770B500250026C822AFF24C1161
:10531000AFF22010FFF762FD08B1012070BDC82276
:10532000AFF260119DA0FFF759FD08B10220F5E72B
:105330001E212820FFF7E5FFFFF733FE2EE01EB900
:10534000FFF72FFE701CC6B21E212820FFF7D9FFE1
:10535000681CC5B20020FBF7CAF80446022C07D12E
:10536000FFF792FF1E212820FFF7CBFF002502E068
:10537000042C00D113E0681CC5B2142D08D10025FF
:105380009C48006808B9012000E0002099490860A5
:105390000A20FCF749FD0120FFF7FAFCCFE700BF28
:1053A000C822AFF2E0117DA0FFF718FD0020B5E79D
:1053B00070472DE9F047804689460026322001F0EB
:1053C000B3FA074600208A490880C822AFF20C21B0
:1053D00089A0FFF703FD08B146F0010600208449CB
:1053E0000880C822AFF2242186A0FFF7F7FCA8B9F5
:1053F0006DA1874800F0B8F904465CB16AA1601C51
:1054000000F0B2F9054600202870621C81A13846E0
:1054100000F0DAFD00207649088001E046F002063F
:10542000C8227FA180A0FFF7D9FCA8B97DA1784848
:1054300000F09AF90446AFF25021204600F094F9AA
:10544000054600202870A21C79A1384600F0BCFD5A
:1054500000206749088001E046F00406C82277A1D1
:1054600078A0FFF7BBFCC0B9AFF28421684800F018
:105470007BF90446AFF29021601C00F075F90546F7
:105480000020287068716B1C621C70A1384600F007
:105490009BFD00205649088001E046F00806C8221E
:1054A0006FA171A0FFF79AFCA0B93FA1584800F086
:1054B0005BF904465BA1601C00F056F9054600202C
:1054C000E870621C6BA1384600F07EFD0020484960
:1054D000088001E046F01006384601F0FDF930463C
:1054E000BDE8F08710B5C822AFF2283164A0FFF7FD
:1054F00075FCC822AFF2343169A0FFF76FFCC822F7
:1055000000216EA0FFF76AFC0520FCF78DFCC82285
:10551000AFF250316DA0FFF761FCC822AFF25C31F1
:105520006EA0FFF75BFC4FF4167273A175A0FFF736
:1055300055FC10BD10B50DE04FF4C870FCF774FCBD
:1055400072480078401C71490870084600780528A8
:1055500000D110BDC8226EA16FA0FFF73FFC00284C
:10556000EAD16A490870012022490C3908604FF4D9
:105570009670FCF759FC00206949C1F89C02C822CA
:10558000AFF2C03167A0FFF729FCFFF70AFD00BFAB
:10559000DFE70000060000200000002041542B43FC
:1055A0005343533D2247534D2200000041542B43A7
:1055B0004D47533D22313333363132393939323068
:1055C000220000003E00000057040020426C696E7B
:1055D00064206C6F636174696F6E202573204E20A8
:1055E00025732045000000002B434D47533A00002F
:1055F00020000020A802404241542B4350494E3F16
:105600000000000041542B434F50533F0000000066
:1056100080080020D4CBD3AAC9CC3A25730000005F
:105620002B4353513A00000041542B435351000087
:10563000D0C5BAC5D6CAC1BF3A2573002B43424371
:105640003A00000041542B4342430000B5E7B3D871
:10565000B5E7C1BF3A25732525202025736D560077
:105660002B43434C4B3A000041542B43434C4B3F9C
:1056700000000000C8D5C6DACAB1BCE43A25730000
:1056800041542B53415042523D332C312C22436F15
:105690006E74797065222C2247505253220000000C
:1056A00041542B53415042523D332C312C22415016
:1056B0004E222C22434D4E455422000041542B5380
:1056C000415042523D312C310000000041542B43E7
:1056D0004E54504349443D310000000041542B4397
:1056E0004E54503D223230322E3132302E322E3155
:1056F0003031222C333200002B434E54503A2031AB
:105700000000000041542B434E5450000400002080
:105710002B434E554D00000041542B434E554D0038
:1057200000004042415445300000000040EA0103BF
:105730009B0703D009E008C9121F08C0042AFAD247
:1057400003E011F8013B00F8013B521EF9D270470B
:10575000421E12F8013F002BFBD111F8013B02F869
:10576000013B002BF9D1704730B505462A460B4660
:1057700012F8010B13F8014B08B1A042F8D01CB18C
:10578000002802D06D1CF1E7284630BD10B5044654
:1057900004E00B7800F8013B03B1491C521EF8D21B
:1057A000204610BD421C10F8011B0029FBD1801AB5
:1057B000704710B5002200E0521C835C8C5CA34251
:1057C00001D1002BF8D1D8B2E1B2401A10BD034686
:1057D00011F8012B00F8012B002AF9D11846704767
:1057E00030B505460020034600E05B1C934205D21D
:1057F000EC5CC85C201A01D1002CF6D130BD70B52C
:10580000064600F007FC046805460A2200213046DF
:1058100000F01FFA2C6070BD2DE9FE4F804681EA32
:105820000300C00F0C46009021F0004123F000451A
:10583000B8EB0200A94105D24046214690461C46DD
:105840000B46024623F00040104347D0270DC7F314
:105850000A00C3F30A510290401A019040286BDA03
:10586000C3F3130040F4801B0098924620B100233C
:10587000D2EB030A63EB0B0B01985946C0F14002CF
:10588000504600F0C5F906460D4650465946019A65
:1058900000F0CDF910EB08006141002487EA1152B5
:1058A00084EAE7731A4340D0009A62B3019A012A4E
:1058B0004FEA075215DC001B61EB02014FF000427A
:1058C00002EA0752CDE90042001C41F58011324640
:1058D0002B4600F03CFA03B0BDE8F08F404621466D
:1058E000F9E7001B61EB0201001C41F58013001871
:1058F0005B412018A2F5001747EB030140EAD57081
:10590000B6196D4111E06D084FEA360645EAC075DB
:105910004FEA0752001B61EB0201001C41F58011A8
:1059200049084FEA30000019514132462B4603B076
:10593000BDE8F04F00F0FCB90098012240000023C0
:10594000D0EB020263EBE073009821464FEAE0746B
:10595000B8EB000061EB0401E9E783F000435BE78B
:1059600081F0004158E72DE9FE4F81EA030404F07D
:10597000004421F0004100944FF0000B23F000435D
:1059800050EA01045ED052EA03045BD0C3F30A5428
:10599000C1F30A552C44A4F2F3340194A0FB025441
:1059A000C1F3130141F48011C3F3130343F48013D3
:1059B00001FB024400FB034E840A970A44EA815427
:1059C00047EA8357A4FB076802958D0A05FB078504
:1059D0004FEA932C04FB0C542705029D4FEA06580E
:1059E00047EA1637B5EB08056EEB070C870E920EEB
:1059F00047EA811742EA8312A7FB0201B6EB0B01CB
:105A000064EB00042B0D43EA0C335E1844EB1C508E
:105A1000DA465146E7FB0201C5F313044FEA0B33A4
:105A200043EA14534FEA0432019C43EA0603A4F10B
:105A30000C040294009CCDE900B400F088F903B096
:105A4000BDE8F08F00200146F9E72DE9F04D81EA2D
:105A5000030404F0004B21F0004514464FF0000A07
:105A600023F0004150EA050220D054EA01021DD083
:105A7000C5F30A570246C5F31303C1F31300C1F37C
:105A80000A5640F4801543F48013A7EB0608101B58
:105A9000D64608F2FD3873EB050002D308F1010881
:105AA00001E092185B41B8F1000F03DA00200146D3
:105AB000BDE8F08D00204FF48011064684460EE0CC
:105AC000171B73EB050705D3121B63EB0503064396
:105AD0004CEA010C49084FEA300092185B4150EA49
